:020000040000FA
:0600000064EF63F0120042
:0600080004EF08F01200F5
:060018000CEF08F01200DD
:0610000064EF63F0120032
:021006001200D6
:06100800B7EF17F0120023
:02100E00FEFFE3
:0610180009EF1BF01200BD
:02101E000200CE
:101020003CC70000A20E00000D0000000E100000E2
:08103000BB0E000002000000ED
:08103800D9CFE6FFE1CFD9FF9B
:10104000E65280A6FED716CEBBFF7B6A7A6A79800D
:1010500080B6FED7BB6A79907A50E00BE838E8405A
:10106000DF6E7B50080DF350DF24DF6E0E0115514B
:10107000040A0AE0020A08E0030A06E0020A04E0A1
:10108000DF504B081DE21AD0DF50146E156A15347C
:1010900005E21450C308000E155410E3DF50146E1F
:1010A000156A153405E21450AA08000E15540BE316
:1010B000DF5057080DE3DF5027080FE3000E10D074
:1010C000DF50370802E2410E0BD0DF50280802E261
:1010D000320E06D0DF50190802E2230E01D0000EB6
:1010E000E552E552E7CFD9FF1200D9CFE6FFE1CFB5
:1010F000D9FF060EE126010EDB6A010EDB500A085D
:1011000001E1BBD0010EDB50090A52E0080A0EE0F3
:10111000030A0CE0010A0AE0070A08E0010A06E0F7
:10112000030A04E0010A02E00F0A6FE1010EDB048A
:1011300005E1020EE66E6FEC35F0E552010EDB5074
:10114000050802E1B1EC35F077DFE76E020EE7CF7C
:10115000DBFF72DFE76E030EE7CFDBFF040EDB4041
:101160007F0BE76E040EE7CFDBFF020EDB50230898
:101170000BE1030EDB50320807E1040EDB50E76E93
:10118000040EE7CFDBFF11D0020EDB5032083AE14C
:10119000030EDB50230836E1040EDB50800FE76EB0
:1011A000040EE7CFDBFF050EDB2A010EDB2AA5D7F5
:1011B00043DFE76E020EE7CFDBFF3EDFE76E030E95
:1011C000E7CFDBFF050EDB50010BE76E050EE7CF27
:1011D000DBFFDB5008E1020EDB50230804E1030EC5
:1011E000DB5032080BE0050EDB040CE1020EDB5095
:1011F000320808E1030EDB50230804E1DE520A0E38
:10120000DD6E7BD7010EDB6A78D7010EDF6E14DF4F
:10121000E76E020EE7CFDBFFDF0401E06ED70CDFE5
:10122000E76E030EE7CFDBFF020EDB50410811E152
:10123000030EDB5032080DE10401E66BDF6A040E99
:10124000DB6A010EF36E050EF3CFDBFFDE52010EFB
:10125000DD6E020EDB5041080DE1030EDB5023086A
:1012600009E10401010EE66FDF6A040EDB6ADE525B
:101270000A0EDD6E030EDB50CBD7040EDB50146E6E
:10128000060EE15C02E2E16AE552E16E1450E552BD
:10129000E7CFD9FF1200D9CFE6FFE1CFD9FF020E89
:1012A000E126DF6A320EDF5C07E2C6DE230802E1D8
:1012B000DF2AF8D7DF6AF6D718DFE76E010EE7CF2F
:1012C000DBFFDBCFE6FF11DFE552E724E76E010E1F
:1012D000E7CFDBFFDBCFE6FF08DFE552E724E76E71
:1012E000010EE7CFDBFFDBCFE6FFFFDEE552E724B1
:1012F000E76E010EE7CFDBFFDBCFE6FFF6DEE55260
:10130000E724E76E010EE7CFDBFFDBCFE6FFEDDE84
:10131000E552E724E76E010EE7CFDBFFDBCFE6FF08
:10132000E4DEE552E724E76E010EE7CFDBFFDBCF1B
:10133000E6FFDBDEE552E724E76E010EE7CFDBFFD9
:10134000DBCFE6FFD2DEE552E724E76E010EE7CF02
:10135000DBFFDB50F36EFE0EDB50F35CA2E1020E0E
:10136000E15C02E2E16AE552E16EE552E7CFD9FFC6
:101370001200D9CFE6FFE1CFD9FF100EE126010E12
:10138000E66EA2EC37F0E552FE0E0E011515080DC3
:10139000F3500209E66ED7EC34F0E552AD0EE66E7E
:1013A0007ADFE552A2DEA1DEE76E080EE7CFDBFFB3
:1013B0009CDEE76E090EE7CFDBFFDB50146E156A8B
:1013C000156E146A020E14C0DBFF030E15C0DBFF9E
:1013D000080EDB50E76E020EDBCF14F0030EDBCFFE
:1013E00015F0E7501426000E1522020E14C0DBFF84
:1013F000030E15C0DBFF79DEE76E0A0EE7CFDBFFD9
:1014000074DEE76E0B0EE7CFDBFFDB50146E156A60
:10141000156E146A040E14C0DBFF050E15C0DBFF49
:101420000A0EDB50E76E040EDBCF14F0050EDBCFA7
:1014300015F0E7501426000E1522040E14C0DBFF31
:10144000050E15C0DBFF040EDBCF16F0050EDBCF5B
:1014500017F01606000E175A020EDB50165C146EBB
:10146000030EDB501758156E040E1426000E1522BD
:10147000060E14C0DBFF070E15C0DBFFDF6A100E7F
:10148000DF5C0DE232DEE66EDF50EA6A000FE96EE5
:10149000010EEA22E552E750EF6EDF2AF0D7100E78
:1014A000DF6E200EDF5C0AE2DF50EA6A000FE96EB1
:1014B000010EEA22200EEF6EDF2AF3D7DF6ADF503B
:1014C000146E156AD890155004E6AB0E145C000E2D
:1014D000155803E20ADEDF2AF2D707DE2C0EE76E8C
:1014E000060EDBCF14F0070EDBCF15F0E750142605
:1014F000000E1522010E1426000E1522FC0E0D6E94
:101500000F0E0E6E14C008F015C009F02CEC63F03D
:1015100004C014F005C015F0045005101BE12C0E9A
:10152000E76E060EDBCF14F0070EDBCF15F0E750A9
:101530001426000E1522FC0E0D6E0F0E0E6E14C03A
:1015400008F015C009F02CEC63F008C014F009C0D5
:1015500015F01ED02C0EE76E060EDBCF14F0070E32
:10156000DBCF15F0E7501426000E1522FC0E0D6E91
:101570000F0E0E6E14C008F015C009F02CEC63F0CD
:1015800008C014F009C015F0010E1426000E152233
:10159000FC0E1502F3CF15F00F0E1402F3501526B2
:1015A000FC0E1402F3CF14F0F45015260C0EF3CFFA
:1015B000DBFF0D0E15C0DBFF0E0EDB6A0F0EDB6AC4
:1015C000146A156A1668176AD9500C0FE96EDACFDB
:1015D000EAFFEE501416EE501516EE501616EE50A9
:1015E0001716100ED8901732163215321432E8063C
:1015F000F9E114C020F1146A1568166A176AD95007
:101600000C0FE96EDACFEAFFEE501416EE50151605
:10161000EE501616EE501716080ED89017321632E6
:1016200015321432E806F9E114C021F10C0EDBCFBB
:1016300014F00D0EDBCF15F00E0EDBCF16F00F0EF3
:10164000DBCF17F014500101226F130E236F1C0E15
:10165000246F0C0E256F0D0E266F276B286B296BE0
:101660002A6B2B6B040EDBCF14F0050EDBCF15F0CD
:101670000001156A14C02CF1DBCF2DF1080EDBCF71
:101680002EF1090EDBCF2FF1020EE66E000EE66E94
:10169000010EE66E300EE66E10EC35F0E552E552C6
:1016A000E552E552AD0EE66EF6DDE552060EDBCFF5
:1016B00014F0070EDBCF15F0040E145E000E155A61
:1016C000060E14C0DBFF070E15C0DBFF0EDDE76E54
:1016D000010EE7CFDBFF020EE66ED950010FE66E7A
:1016E000000EDA20E66E010EE66E10EC35F0E552E3
:1016F000E552E552E552D950060FE96EDACFEAFF1E
:10170000EE50ED1006E189849284100EE15C09E24E
:1017100006D0060EDB06070ED9E2DB06D7D7E16A54
:10172000E552E16EE552E7CFD9FF1200D9CFE6FFCF
:10173000E1CFD9FF030EE12679800E0115510A0A87
:101740003AE0010A38E0070A36E0010A34E0030A09
:1017500032E0010A30E01F0A2EE0010A2CE0120AF2
:101760002AE00A0A28E0080A26E0030A24E00A0A16
:1017700022E0080A20E0050A06E0020A04E0030A63
:1017800002E0020A18E1FE0EDB50410A0EE0730A85
:1017900007E0110A27E1050EDF6EDE52AF0E09D019
:1017A0000B0EDF6EDE52410E04D0160EDF6EDE52DF
:1017B0006B0EDD6E17D0FE0EDB50410A0EE0730A91
:1017C00007E0110A0FE1040EDF6EDE52170E09D09A
:1017D000050EDF6EDE52F70E04D0070EDF6EDE520E
:1017E000D40EDD6E020EDB6A010EDB507A5C03E381
:1017F000DF507B5C03E2A150020BF6E07990A192EE
:101800007B6A7A6A7980020EDB5009E1808A16CE03
:10181000BBFF010EF36E020EF3CFDBFFE5D7809A1C
:10182000BB6A030EE15C02E2E16AE552E16EE55259
:10183000E7CFD9FF1200D9CFE6FFE1CFD9FF020EE3
:10184000E126410EE66E72DFE552320EE66E6EDF85
:10185000E552DE52010EDD6EDF6A080EDF5C1FE22C
:10186000FE0EDBA00BD0320EE66E60DFE552230EDB
:10187000E66E5CDFE552010EDB2A08D0230EE66E31
:1018800055DFE552320EE66E51DFE552FE0EDB40CB
:101890007F0BE76EFE0EE7CFDBFFDF2ADED7010E00
:1018A000DBA006D0320EE66E41DFE552230E05D0F6
:1018B000230EE66E3BDFE552320EE66E37DFE55271
:1018C000020EE15C02E2E16AE552E16EE552E7CF29
:1018D000D9FF1200410EE66E29DFE552230EE66EB7
:1018E00025DFE5521200D9CFE6FFE1CFD9FFD9506D
:1018F000FD0FE96EFF0EDA20EA6E000ED880EE547E
:10190000000EED540AE2230EE66E10DFE552FD0EE6
:10191000DB06FE0EECE2DB06EAD7E552E7CFD9FFA5
:101920001200D9CFE6FFE1CFD9FF040EE126DE6A2F
:10193000DE6ADE6ADD6ADD52DD52D9CFE9FFDACF39
:10194000EAFFA00EEE5C860EEE58010EEE58000E79
:10195000EE5813E20000000000000000000000004C
:10196000000000000000D9CFE9FFDACFEAFFEE2A3D
:10197000000EEE22EE22EE22E0D7040EE15C02E23F
:10198000E16AE552E16EE552E7CFD9FF1200D9CF07
:10199000E6FFE1CFD9FFE652DF6A090EDF5C09E21C
:1019A000FE0EDBCFE6FF47DFE552FE0EDB06DF2A49
:1019B000F4D7E552E552E7CFD9FF1200D9CFE6FFC1
:1019C000E1CFD9FF030EE126020E40C5DBFFDBCFDE
:1019D000E6FF31DFE552020EDB50DF6E020E41C53D
:1019E000DBFFDBCFE6FF27DFE552020EDB50DF181F
:1019F000DF6E020E42C5DBFFDBCFE6FF1CDFE552E8
:101A0000020EDB50DF18DF6E020E43C5DBFFDBCFBB
:101A1000E6FF11DFE552020EDB50DF18DF6E020E2B
:101A200044C5DBFFDBCFE6FF06DFE552020EDB50ED
:101A3000DF18DF6E010EDB6A100EF36E010EDBCFD6
:101A4000F4FFF350F45C15E2010EDB50EA6A450F37
:101A5000E96E050EEA22020EEFCFDBFFDBCFE6FFD9
:101A6000EADEE552020EDB50DF18DF6E010EDB2AE4
:101A7000E3D7010EDB6ADB50146E156AD89015505F
:101A800004E6AB0E145C000E155815E2010EDB5097
:101A9000EA6A550FE96E050EEA22020EEFCFDBFF70
:101AA000DBCFE6FFC8DEE552020EDB50DF18DF6E4B
:101AB000010EDB2AE0D7DFCFE6FFBDDEE5520ADF0D
:101AC000030EE15C02E2E16AE552E16EE552E7CF26
:101AD000D9FF1200D9CFE6FFE1CFD9FF0B0EE126E7
:101AE0000E01155101E19FD0010A01E19CD0090AC4
:101AF00001E17ED0010A01E17BD00D0A6CE0010A10
:101B00006AE0030A68E0010A66E0050A46E0010AA5
:101B100044E00F0A27E0010A25E0030A23E0010A56
:101B200021E01F0A1FE0010A1DE01B0A03E0010A71
:101B300001E079D0B80EDE6E520EDD6ED950020F84
:101B4000E96EDACFEAFFBE0EEE6E530EED6E060EB4
:101B5000F36E040EF3CFDBFF010EF36E050EF3CF31
:101B6000DBFF14D0570EDE6E540EDD6ED950020F1F
:101B7000E96EDACFEAFF4A0EEE6E550EED6EF30E09
:101B8000F36E040EF3CFDBFF050EDB6A010EF36E7E
:101B9000060EF3CFDBFF040E60D0E50EDE6E560EB0
:101BA000DD6ED950020FE96EDACFEAFF090EEE6E54
:101BB000580EED6E240EF36E040EF3CFDBFF010E14
:101BC000F36E050EF3CFDBFF010EF36E060EF3CFBF
:101BD000DBFF120E42D0DE0EDE6E550EDD6ED950EA
:101BE000020FE96EDACFEAFF3B0EEE6E560E27D0FB
:101BF000A50EDE6E590EDD6ED950020FE96EDACFFA
:101C0000EAFF490EEE6E5A0EED6EA40EF36E040E50
:101C1000F3CFDBFF050EDB6A010EF36E060EF3CF8A
:101C2000DBFF1C0E1AD0A40EDE6E580EDD6ED950EE
:101C3000020FE96EDACFEAFF010EEE6E590EED6E7D
:101C40005D0EF36E040EF3CFDBFF050EDB6AA70E0D
:101C5000F36E060EF3CFDBFF020EF36E070EF3CF2B
:101C6000DBFF040EDBCF16F0050EDBCF17F0060E00
:101C7000DB501624146E070EDB501720156E080E6D
:101C800014C0DBFF090E15C0DBFF060EDBCF14F01E
:101C9000070E0001156A14C041F5DBCF42F5080EAE
:101CA000DBCF14F0090E156A14C043F5DBCF44F501
:101CB0000E0115510A0A12E0010A10E0070A0EE0AF
:101CC000010A0CE0030A0AE0010A08E01F0A06E024
:101CD000010A04E0130A02E0010A03E10501010E12
:101CE00002D00501030E406F130E456F930E466F31
:101CF000430E476F410E486F530E496F4A6F490EAE
:101D00004B6F4F0E4C6F500E4D6F450E4E6F490E80
:101D10004F6F200E506F560E516F320E526F2E0EB7
:101D2000536F300E546F0A0EDB6ADB50146E156A67
:101D3000D890155004E6AB0E145C000E15581DE249
:101D40000A0EDB50E76E020EDBCFF6FF030EDBCF91
:101D5000F7FFE750F626000EF7220800F550E66E72
:101D60000A0EDB50EA6A550FE96E050EEA22E552CB
:101D7000E750EF6E0A0EDB2AD8D7929A9294899494
:101D8000DC0EE66E050EE66EAEDDE552E552890E1E
:101D9000E66EFDDDE55212DE4F0EE66EE66AA3DD6D
:101DA000E552E552090EE66EF2DDE55207DE4F0E12
:101DB000E66EE66A98DDE552E552640EE66E53EC97
:101DC00060F0E552C9DB900EE66E53EC60F0E55230
:101DD000DC0EE66E050EE66E86DDE552E552890EF6
:101DE000E66ED5DDE552040EDBCFE6FF050EDBCF58
:101DF000E6FFDECFE6FFDDCFE6FFE5D9E552E552AF
:101E0000E552E5524F0EE66EE66A6DDDE552E552AB
:101E1000090EE66EBCDDE552040EDBCFE6FF050ED3
:101E2000DBCFE6FFDECFE6FFDDCFE6FFCCD9E55224
:101E3000E552E552E55289849284808AFE0EDB5099
:101E400005E1640EE66E53EC60F0E5520B0EE15CCA
:101E500002E2E16AE552E16EE552E7CFD9FF1200F6
:101E6000D9CFE6FFE1CFD9FF140EE126130E15CE30
:101E7000DBFF0E01156BC00EDE6E500EDD6EF80E30
:101E8000F36E040EF3CFDBFF010EF36E050EF3CFFE
:101E9000DBFF010EF36E060EF3CFDBFF040EF36ED5
:101EA000070EF3CFDBFF040EDBCF16F0050EDBCF02
:101EB00017F0060EDB501624146E070EDB501720A9
:101EC000156E080E14C0DBFF090E15C0DBFF060EF1
:101ED000DBCF14F0070EDBCF15F00001156A14C03C
:101EE00041F5070EDBCF42F5080EDBCF14F0090EEB
:101EF000DBCF15F00001156A14C043F5090EDBCFE6
:101F000044F50501010E406F0501530E456F0501B3
:101F1000450E466F0501540E476F0501430E486F8D
:101F200005014F0E496F05014D0E4A6F0501500E18
:101F30004B6F05014D0E4C6F05014F0E4D6F0501A6
:101F4000440E4E6F0501450E4F6F05014C0E506F4C
:101F50000501200E516F0501200E526F0501200E64
:101F6000536F0501200E546F0A0EDB6A0A0EDB5018
:101F7000146E156AD890155004E6AB0E145C000E72
:101F800015580BE20A0EDB50EA6A550FE96E050E92
:101F9000EA22EF6A0A0EDB2AE9D7929A9294899490
:101FA000DC0EE66E050EE66E9EDCE552E552890E0D
:101FB000E66EEDDCE55202DD4F0EE66EE66A93DC7E
:101FC000E552E552090EE66EE2DCE552F7DC4F0E13
:101FD000E66EE66A88DCE552E552640EE66E53EC86
:101FE00060F0E552B9DA900EE66E53EC60F0E5521F
:101FF000DC0EE66E050EE66E76DCE552E552890EE5
:10200000E66EC5DCE552040EDBCFE6FF050EDBCF46
:10201000E6FFDECFE6FFDDCFE6FFD5D8E552E5529D
:10202000E552E5524F0EE66EE66A5DDCE552E5529A
:10203000090EE66EACDCE552040EDBCFE6FF050EC2
:10204000DBCFE6FFDECFE6FFDDCFE6FFBCD8E55213
:10205000E552E552E55289849284808A640EE66EE8
:1020600053EC60F0E552200EF36E0B0EF3CFDBFF66
:102070004E0EF36E0C0EF3CFDBFF8250010B22E00D
:10208000D9500B0FE96EDACFEAFF000ED880EE547C
:10209000000EED5417E20B0EDB060C0E01E2DB0620
:1020A0000000000000000000000000000000000030
:1020B0000000000000000000000000000000000020
:1020C0000000DBD7D9500B0FE96EDACFEAFFEE50F4
:1020D000ED100EE1060E0E01155D06E1130EDBCFCD
:1020E00015FE000E64D003D00E01060E156F01D050
:1020F00001D0C1D692948994AD0EE66E4BEC09F0F6
:10210000E552AD0EE66E4BEC09F0E5520A0EDB6AC5
:10211000060EF36E0A0EDBCFF4FFF350F45C16E20A
:1021200075EC08F0E66ED9500D0F146EDACF15F08D
:102130000A0EDB500F011424E96E000E1520EA6E22
:10214000E552E750EF6E0A0EDB2AE2D789849284CB
:102150000D0EDB50020826E10E0EDB50430822E193
:102160000F0EDB5046081EE1100EDB5047081AE147
:10217000110EDB50D00FE76E110EE7CFDBFF120E12
:10218000DB50D00FE76E120EE7CFDBFF120EDBCF76
:10219000E6FF110EDB50E824E552E7240E01156F2F
:1021A000010E05D0130EDBCF15FE000E00D0146E0D
:1021B000140EE15C02E2E16AE552E16E1450E55270
:1021C000E7CFD9FF1200D9CFE6FFE1CFD9FF040E48
:1021D000E126FD0EDBCFF6FFFE0EDBCFF7FF08009A
:1021E000010EF5CFDBFFDBCFE6FF1BEC0CF0E55279
:1021F000010EDB50DF6E010EF36E020EF3CFDBFF3C
:10220000030EDB6A020EDBCF14F0030EDBCF15F0FA
:10221000FB0EDBCF16F0FC0EDBCF17F01650145C74
:102220001750155821E2020EDBCF14F0030EDBCF5E
:1022300015F0FD0EDB501424F66EFE0EDB5015205B
:10224000F76E0800010EF5CFDBFFDBCFE6FF1BECDE
:102250000CF0E552010EDB50DF18DF6E020EDB2AB8
:10226000030ED0E3DB2ACED7DFCFE6FF1BEC0CF06A
:10227000E5526AEC0CF0040EE15C02E2E16AE55220
:10228000E16EE552E7CFD9FF1200D9CFE6FFE1CFEB
:10229000D9FFE6522DEC3AF0DF6A100EDF5C10E257
:1022A000E66AE4EC35F0E552E66EDF50EA6A450F87
:1022B000E96E050EEA22E552E750EF6EDF2AEDD710
:1022C000DF6A1C0EDF5C06E2E66AE4EC35F0E552FC
:1022D000DF2AF7D70E0115510A0A12E0010A10E0B1
:1022E000070A0EE0010A0CE0030A0AE0010A08E00E
:1022F0001F0A06E0010A04E0130A02E0010A03E1F2
:102300000501010E02D00501030E406FE66AE4EC00
:1023100035F0E5520501436FE66AE4EC35F0E5522D
:102320000501446F432B435101E1442BE66AE4EC81
:1023300035F0E5520501416FE66AE4EC35F0E5520F
:102340000501426FDF6ADF50146E156AD890155090
:1023500004E6AB0E145C000E15580AE2DF50EA6A80
:10236000550FE96E050EEA22200EEF6EDF2AEBD73D
:10237000929A92948994DC0EE66E050EE66E73ECEA
:102380000CF0E552E552890EE66EC7EC0CF0E55212
:10239000DEEC0CF04E0EE66EE66A73EC0CF0E552E5
:1023A000E552090EE66EC7EC0CF0E552DEEC0CF0DF
:1023B0004F0EE66EE66A73EC0CF0E552E552640EE1
:1023C000E66E53EC60F0E552C7D8900EE66E53EC23
:1023D00060F0E552DC0EE66E050EE66E73EC0CF076
:1023E000E552E552890EE66EC7EC0CF0E5521AD8BC
:1023F0004E0EE66EE66A73EC0CF0E552E552090EFD
:10240000E66EC7EC0CF0E5520DD889849284808A80
:10241000640EE66E53EC60F0E552E552E552E7CF0C
:10242000D9FF1200D9CFE6FFE1CFD9FF060EE12692
:10243000050144C517F0166A43511624146E000EA8
:102440001720156E040E14C0DBFF050E15C0DBFF50
:102450004251166E42C517F0166A4151000116240A
:10246000146E000E1720156E020E14C0DBFF030E53
:1024700015C0DBFF040EDBCF16F0050EDBCF17F027
:10248000020EDB50165C146E030EDB501758156EEF
:10249000040E14C0DBFF050E15C0DBFF35EC3AF06F
:1024A000010EE66EE4EC35F0E552020EE66EE4EC69
:1024B00035F0E552E76E010EE7CFDBFFDBCFE6FF3D
:1024C0001BEC0CF0E552010EDB50DF6E010EF36EDB
:1024D000020EF3CFDBFF030EDB6A020EDBCF14F03C
:1024E000030EDBCF15F0040EDBCF16F0050EDBCFAD
:1024F00017F01650145C1750155818E2020EE66ECD
:10250000E4EC35F0E552E76E010EE7CFDBFFDBCF01
:10251000E6FF1BEC0CF0E552010EDB50DF18DF6E1E
:10252000020EDB2A030ED9E3DB2AD7D7DFCFE6FF83
:102530001BEC0CF0E5526AEC0CF0030EE66EE4ECDA
:1025400035F0E552060EE15C02E2E16AE552E16E29
:10255000E552E7CFD9FF1200D9CFE6FFE1CFD9FF8F
:10256000020EE126010EDE6EDD6A82B013D082B06B
:1025700011D0DFCF14F0DF06010EDBCF15F001E242
:10258000DB0614501510F3E1600EDE6EEA0EDD6E10
:102590008B74EDD78B84020EE15C02E2E16AE552B6
:1025A000E16EE552E7CFD9FF1200D9CFE6FFE1CFC8
:1025B000D9FF030EE12692948994020EDB6A0A0E7B
:1025C000F36E020EDBCFF4FFF350F45C33E2020E45
:1025D000DB2ADE6ADD6A80B614D0DF2A010E01E351
:1025E000DB2A640EE66E0FEC60F0E552D9CFE9FF0E
:1025F000DACFEAFF100EEE18EEE1270EED18EBE150
:1026000017D0DE6ADD6A80A6DAD7DF2A010E01E381
:10261000DB2A640EE66E0FEC60F0E552D9CFE9FFDD
:10262000DACFEAFF100EEE18EEE1270EED18EBE11F
:10263000000E01D0010E146E030EE15C02E2E16AAD
:10264000E552E16E1450E552E7CFD9FF1200D9CF21
:10265000E6FFE1CFD9FF0F0EE126C00E0401E95DD0
:1026600001E009D317CEDFFF010EDB6A020EDB6A41
:10267000030EDB6AD9CFE9FFDACFEAFFEECF14F021
:10268000EECF15F0EECF16F016C017F015C016F00D
:1026900014C015F00001146A18CE18F0196A1A6AED
:1026A0001B6A18501426195015221A5016221B5056
:1026B000172214C0DFFF010E15C0DBFF020E16C08B
:1026C000DBFF030E17C0DBFFD9CFE9FFDACFEAFF4C
:1026D000EECF14F0EECF15F0EECF16F016C017F0D7
:1026E00015C016F014C015F0146A19CE18F0196A46
:1026F0001A6A1B6A18501426195015221A501622ED
:102700001B50172214C0DFFF010E15C0DBFF020EA5
:1027100016C0DBFF030E17C0DBFF040EDB6A050EDD
:10272000DB6A060EDB6A070EDB6A080EDB6A090E3F
:10273000DB6A0A0EDB6A0B0EDB6A060EE66EA3ECA2
:1027400055F0E552060EE66EE66AB8EC54F0E55236
:10275000E552D9CFE9FFDACFEAFFEECFE6FFEECFC1
:10276000E6FFEECFE6FFEFCFE6FF4A0E146EBD0E9A
:10277000156E166A14C0E6FFE66E16C0E6FFF7ECAB
:1027800061F0176E070EE15E17508B828B84146A1E
:10279000400E156E166A176AD950080FE96EDACF27
:1027A000EAFFEE501426EE501522EE501622EE509F
:1027B0001722080E14C0DBFF090E15C0DBFF0A0E3E
:1027C00016C0DBFF0B0E17C0DBFF146A156A166814
:1027D000176AD950080FE96EDACFEAFFEE501416E7
:1027E000EE501516EE501616EE501716100ED89025
:1027F0001732163215321432E806F9E10C0E14C005
:10280000DBFF146A1568166A176AD950080FE96E5B
:10281000DACFEAFFEE501416EE501516EE501616EB
:10282000EE501716080ED8901732163215321432A1
:10283000E806F9E10D0E14C0DBFF080EDBCF14F043
:10284000090EDBCF15F00A0EDBCF16F00B0EDBCF37
:1028500017F01450E76E0E0EE7CFDBFF35EC3AF0C1
:102860000E0EDBCFE6FF0D0EDBCFE6FF0C0EDBCF4F
:10287000E6FF7EEC36F0E552E552E552E66AE4EC1E
:1028800035F0E552146E040E14C0DBFF050EDB6A52
:10289000060EDB6A070EDB6A040EDBCF14F0050EB2
:1028A000DBCF15F0060EDBCF16F0070E16C017F0C3
:1028B00015C016F014C015F00001146A14C0E6FF2C
:1028C00015C0E6FF16C0E6FF17C0E6FFE66AE4ECB7
:1028D00035F0E552E552E7CF17F0E552E7CF16F0B5
:1028E000E552E7CF15F0E552E7CF14F0186E196AFC
:1028F0001A6A1B6AE8501426195015221A5016221B
:102900001B501722040E14C0DBFF050E15C0DBFFA1
:10291000060E16C0DBFF070E17C0DBFF040EDBCF71
:1029200014F0050EDBCF15F0060EDBCF16F0070E08
:1029300016C017F015C016F014C015F00001146A87
:1029400014C0E6FF15C0E6FF16C0E6FF17C0E6FF9D
:10295000E66AE4EC35F0E552E552E7CF17F0E552D0
:10296000E7CF16F0E552E7CF15F0E552E7CF14F0C8
:10297000186E196A1A6A1B6AE85014261950152233
:102980001A5016221B501722040E14C0DBFF050E2E
:1029900015C0DBFF060E16C0DBFF070E17C0DBFFFE
:1029A000040EDBCF14F0050EDBCF15F0060EDBCFE7
:1029B00016F0070EDBCF17F0D9CFE9FFDACFEAFF29
:1029C000EE50145CEE501558EE501658EE50175855
:1029D00001E2DDD6080EDBCF14F0090EDBCF15F0D7
:1029E0000A0EDBCF16F00B0EDBCF17F0400E155E94
:1029F000000E165A175A080E14C0DBFF090E15C038
:102A0000DBFF0A0E16C0DBFF0B0E17C0DBFF146ADC
:102A1000156A1668176AD950080FE96EDACFEAFF0F
:102A2000EE501416EE501516EE501616EE50171600
:102A3000100ED8901732163215321432E806F9E12A
:102A40000C0E14C0DBFF146A1568166A176AD95099
:102A5000080FE96EDACFEAFFEE501416EE501516A5
:102A6000EE501616EE501716080ED8901732163282
:102A700015321432E806F9E10D0E14C0DBFF080E22
:102A8000DBCF14F0090EDBCF15F00A0EDBCF16F00A
:102A90000B0EDBCF17F01450E76E0E0EE7CFDBFF07
:102AA00035EC3AF00E0EDBCFE6FF0D0EDBCFE6FF86
:102AB0000C0EDBCFE6FF7EEC36F0E552E552E55238
:102AC000010EE66EE4EC35F0E552EFD8020EE66E4C
:102AD000E4EC35F0E552146E040E14C0DBFF050E75
:102AE000DB6A060EDB6A070EDB6A040EDBCF14F02E
:102AF000050EDBCF15F0060EDBCF16F0070E16C065
:102B000017F015C016F014C015F00001146A14C0B7
:102B1000E6FF15C0E6FF16C0E6FF17C0E6FF020E8F
:102B2000E66EE4EC35F0E552E552E7CF17F0E552FA
:102B3000E7CF16F0E552E7CF15F0E552E7CF14F0F6
:102B4000186E196A1A6A1B6AE85014261950152261
:102B50001A5016221B501722040E14C0DBFF050E5C
:102B600015C0DBFF060E16C0DBFF070E17C0DBFF2C
:102B7000040EDBCF14F0050EDBCF15F0060EDBCF15
:102B800016F0070E16C017F015C016F014C015F099
:102B90000001146A14C0E6FF15C0E6FF16C0E6FF88
:102BA00017C0E6FF020EE66EE4EC35F0E552E552A2
:102BB000E7CF17F0E552E7CF16F0E552E7CF15F073
:102BC000E552E7CF14F0186E196A1A6A1B6AE850CA
:102BD0001426195015221A5016221B501722040EC3
:102BE00014C0DBFF050E15C0DBFF060E16C0DBFFB1
:102BF000070E17C0DBFF0401030EEF5F000EF05B52
:102C0000D950040FE96EDACFEAFF080EEECFDBFFF2
:102C1000090EEECFDBFF0A0EEECFDBFF0B0EEECF81
:102C2000DBFF080EDBCF14F0090EDBCF15F00A0E28
:102C3000DBCF16F00B0EDBCF17F0D9CFE9FFDACFE1
:102C4000EAFFEE50145CEE501558EE501658EE5058
:102C500017580CE247D8D950080FE96EDACFEAFFCF
:102C6000EE2A000EEE22EE22EE22DBD7060EE66EF4
:102C7000A3EC55F00FD019CEE6FF18CEE6FF17CE25
:102C8000E6FF7EEC36F0E552E552E552010EE66EC7
:102C9000E4EC35F0E5520F0EE15C02E2E16AE55248
:102CA000E16EE552E7CFD9FF1200D9CFE6FFE1CFC1
:102CB000D9FFE6520401EF6B400EF06FEB6BEC6B4B
:102CC000ED6BDF6ADF50EA6A000FE96E020EEA225E
:102CD000EF6ADF2ADF500008F5E3E552E552E7CF5F
:102CE000D9FF1200C00E0401E95D52E1EF51F0116D
:102CF00015E1DBDF020EE66EE4EC35F0E552020E84
:102D0000E66EE4EC35F0E552020EE66EE4EC35F0EA
:102D1000E5520401030EEF5F000EF05BEC5121E180
:102D2000020EE66EE4EC35F0E5520401EE6FEF07BB
:102D3000000EF05BEA51EE5D14E1020EE66EE4EC8B
:102D400035F0E5520401EB6FEF07000EF05B020E69
:102D5000E66EE4EC35F0E5520401EC6FEF07000E8F
:102D6000F05BEC5100080AE2EB51ED25EA6A000F36
:102D7000E96E020EEA22EFCFEEF4EC07ED51EA6ABB
:102D8000000FE96E020EEA22EEC4EFFFED2B07D032
:102D9000020EE66EE4EC35F0E5520401EE6FEE5102
:102DA0001200D9CFE6FFE1CFD9FF040EE126FE0ED7
:102DB000DB50040A01E1A4D0070A67E0010A5AE0E7
:102DC000030A45E0010A01E0C8D0929A92948994DE
:102DD000809A31EC3AF0E66AE4EC35F0E552040111
:102DE000E86FE66AE4EC35F0E5520401E96FE66A63
:102DF000E4EC35F0E5520401EA6F29DC0401F16BE3
:102E0000F26B70DFE66E0401F251EA6A000FE96EC0
:102E1000010EEA22E552E750EF6EF22BF251000864
:102E2000F0E3F16BF26BE76BCD82CD9ECD9CCD9A3A
:102E3000CD88CD90CF6ACE6ACD809F809E909D80B8
:102E4000F28EF28CCD90CF6ACE6ACD8086D004010E
:102E5000F151F25D01E181D045DFE66E0401F251EE
:102E6000EA6A000FE96E010EEA22E552E750EF6EC2
:102E7000F22BEDD7030EE66EE4EC35F0E5529294BA
:102E800089848B928B949D9068D0929A9294899425
:102E9000809A0401F16BF26B01C5E8F4020EDF6E5B
:102EA000DF503F0814E3DF50EA6A000FE96E050EB9
:102EB000EA22EF50E66EF251EA6A000FE96E010E67
:102EC000EA22E552E750EF6EF22BDF2AE9D7F16BE9
:102ED000F26BE76BCD82CD9ECD9CCD9ACD88CD9007
:102EE000CF6ACE6ACD809F809E909D80F28EF28CBC
:102EF000CD90CF6ACE6ACD800E011E6B1F6B2DD098
:102F00000E0114052AE1020EDF6EDF503F0823E3B5
:102F1000DF50EA6A000FE96E050EEA22EF50E66E16
:102F20000401F251EA6A000FE96E010EEA22E5524D
:102F3000E750EF6EF22B0E01000ED8801E55000EEA
:102F40001F5503E21E07000E1F5B0401F151F25DE5
:102F5000FCE0DF2ADAD70E01146B040EE15C02E21A
:102F6000E16AE552E16EE552E7CFD9FF1200DACF10
:102F7000E4FFE9CFE4FFEACFE4FFF6CFE4FFF7CFC9
:102F8000E4FFF5CFE4FFF3CFE4FFF4CFE4FFE65234
:102F9000CD909E9082B019D0F2A415D00401F32BED
:102FA000F3511D6E1E6AD8901E5004E6800E1D5C03
:102FB000000E1E5803E28B928B9402D08B928B846E
:102FC000B00ECF6EDBD1D58E03D0D59EF294D66AEB
:102FD0000401F151EA6A000FE96E010EEA22EFCF17
:102FE000F4F48B928B84F45101E05DD2E80501E0AA
:102FF0005AD28B82E75101E06FD0F129EA6A000FC3
:10300000E96E010EEA22EFCFF7F4020EF125EA6A2B
:10301000000FE96E010EEA22EFCFF6F4030EF12560
:10302000EA6A000FE96E010EEA22EFCFF5F40A0E0C
:10303000E76FF751E840E840E8401F0BF76FF651A3
:10304000200DF350F725F76FF651E840E840E840CF
:103050001F0BF66FF551200DF350F625F66FF55165
:10306000E840E840E8401F0BF56FF86FF6C4F9F44C
:10307000809AF7C4F4F40E0115510A0A01E1B1D0A7
:10308000060A01E1AED0020A01E1ABD01E0A01E15D
:10309000A8D0180A01E1A5D0080A01E1A2D0020ACD
:1030A00001E18FD0060A01E17CD0020A01E179D06A
:1030B0000D0A67E0060A65E0020A63E01E0A61E0A5
:1030C000180A5FE0080A5DE0020A4BE0060A39E0F0
:1030D000020A01E086D035D00A0EE75D01E027D173
:1030E000F55101E092D0F65101E08FD0808A140EA4
:1030F000E76FF7C4F4F40E0115510A0A72E0060AEC
:1031000070E0020A6EE01E0A6CE0180A6AE0080A23
:1031100068E0020A56E0060A44E0020A42E00D0AAC
:1031200030E0060A2EE0020A2CE01E0A2AE0180A05
:1031300028E0080A26E0020A14E0060A02E0020A71
:1031400050E10401F451F76ABE0FF66E640EF722E7
:103150000800F550CF6EF451F76ABE0FF66E650E9B
:103160004FD00401F451F76ABE0FF66E600EF722DD
:103170000800F550CF6EF451F76ABE0FF66E610E7F
:103180003FD00401F451F76ABE0FF66E620EF722CB
:103190000800F550CF6EF451F76ABE0FF66E630E5D
:1031A0002FD00401F451F76ABE0FF66E5E0EF722BF
:1031B0000800F550CF6EF451F76ABE0FF66E5F0E41
:1031C0001FD00401F451F76ABE0FF66E5A0EF722B3
:1031D0000800F550CF6EF451F76ABE0FF66E5B0E25
:1031E0000FD00401F451F76ABE0FF66E5C0EF722A1
:1031F0000800F550CF6EF451F76ABE0FF66E5D0E03
:10320000F7220800F550CE6EBAD0F46B0E011551BE
:103210000A0A72E0060A70E0020A6EE01E0A6CE01A
:10322000180A6AE0080A68E0020A56E0060A44E062
:10323000020A42E00D0A30E0060A2EE0020A2CE003
:103240001E0A2AE0180A28E0080A26E0020A14E00A
:10325000060A02E0020A50E10401F451F76ABE0FC7
:10326000F66E640EF7220800F550CF6EF451F76A3F
:10327000BE0FF66E650E4FD00401F451F76ABE0F13
:10328000F66E600EF7220800F550CF6EF451F76A23
:10329000BE0FF66E610E3FD00401F451F76ABE0F07
:1032A000F66E620EF7220800F550CF6EF451F76A01
:1032B000BE0FF66E630E2FD00401F451F76ABE0FF5
:1032C000F66E5E0EF7220800F550CF6EF451F76AE5
:1032D000BE0FF66E5F0E1FD00401F451F76ABE0FE9
:1032E000F66E5A0EF7220800F550CF6EF451F76AC9
:1032F000BE0FF66E5B0E0FD00401F451F76ABE0FDD
:10330000F66E5C0EF7220800F550CF6EF451F76AA6
:10331000BE0FF66E5D0EF7220800F550CE6ECD8022
:10332000F607FF0EF65D01E062D1F50760D1140EDD
:10333000E75D01E0B8D0F85124E1F95122E1F12B29
:10334000F12BF12BF12B040E0E011E251E6F000E2A
:103350001F211F6F0401FB6B030EFB5D0DE20E01CD
:10336000192B195106E10E01182B185102E10E011B
:10337000172B0401FB2BF0D7E76BCF68CE68CD800D
:1033800036D1F46B0E0115510A0A72E0060A70E09C
:10339000020A6EE01E0A6CE0180A6AE0080A68E099
:1033A000020A56E0060A44E0020A42E00D0A30E052
:1033B000060A2EE0020A2CE01E0A2AE0180A28E07B
:1033C000080A26E0020A14E0060A02E0020A50E1B6
:1033D0000401F451F76ABE0FF66E640EF72208007E
:1033E000F550CF6EF451F76ABE0FF66E650E4FD0F2
:1033F0000401F451F76ABE0FF66E600EF722080062
:10340000F550CF6EF451F76ABE0FF66E610E3FD0E5
:103410000401F451F76ABE0FF66E620EF72208003F
:10342000F550CF6EF451F76ABE0FF66E630E2FD0D3
:103430000401F451F76ABE0FF66E5E0EF722080023
:10344000F550CF6EF451F76ABE0FF66E5F0E1FD0C7
:103450000401F451F76ABE0FF66E5A0EF722080007
:10346000F550CF6EF451F76ABE0FF66E5B0E0FD0BB
:103470000401F451F76ABE0FF66E5C0EF7220800E5
:10348000F550CF6EF451F76ABE0FF66E5D0EF7225F
:103490000800F550CE6ECD80F907FF0EF95D01E012
:1034A000A6D0F807A4D00E0115510A0A72E0060A48
:1034B00070E0020A6EE01E0A6CE0180A6AE0080A70
:1034C00068E0020A56E0060A44E0020A42E00D0AF9
:1034D00030E0060A2EE0020A2CE01E0A2AE0180A52
:1034E00028E0080A26E0020A14E0060A02E0020ABE
:1034F00050E10401F451F76ABE0FF66E640EF72234
:103500000800F550CF6EF451F76ABE0FF66E650EE7
:103510004FD00401F451F76ABE0FF66E600EF72229
:103520000800F550CF6EF451F76ABE0FF66E610ECB
:103530003FD00401F451F76ABE0FF66E620EF72217
:103540000800F550CF6EF451F76ABE0FF66E630EA9
:103550002FD00401F451F76ABE0FF66E5E0EF7220B
:103560000800F550CF6EF451F76ABE0FF66E5F0E8D
:103570001FD00401F451F76ABE0FF66E5A0EF722FF
:103580000800F550CF6EF451F76ABE0FF66E5B0E71
:103590000FD00401F451F76ABE0FF66E5C0EF722ED
:1035A0000800F550CF6EF451F76ABE0FF66E5D0E4F
:1035B000F7220800F550CE6ECD80E7510FE1809ADA
:1035C000BB6A010EE76F0E01192B195110E10E01B4
:1035D000182B18510CE10E01172B09D0808A16CE3A
:1035E000BBFFE76BF12B0E011E2B000E1F23E552D4
:1035F000E5CFF4FFE5CFF3FFE5CFF5FFE5CFF7FF2C
:10360000E5CFF6FFE5CFEAFFE5CFE9FFE5CFDAFF4B
:023610001100A7
:0E361200D8CFE4FFE0CFE4FFE46EDACFE4FFB0
:10362000E652E552E5CFDAFFE550E5CFE0FFE5CF22
:10363000D8FF1000D9CFE6FFE1CFD9FF730EE12606
:10364000700EDB6A2AEC27F0AAEC33F046EC54F05B
:10365000E66AE66AB8EC54F0E552E5520D0EE66E05
:10366000E66A020EE66EE66A100EE66EE66A2E0E58
:10367000146EBD0E156E166A14C0E6FF15C0E6FF87
:1036800016C0E6FFF7EC61F0176E090EE15E175009
:10369000E66AE66AB8EC54F0E552E5520D0EE66EC5
:1036A000E66A020EE66EE66A100EE66EE66A2E0E18
:1036B000146EBD0E156E166A14C0E6FF15C0E6FF47
:1036C00016C0E6FFF7EC61F0176E090EE15E1750C9
:1036D000010EE66EE66AB8EC54F0E552E5521A0EB9
:1036E000146EBD0E156E166A14C0E6FF15C0E6FF17
:1036F00016C0E6FFF7EC61F0E552E552E552060E22
:10370000E66EE66AB8EC54F0E552E552090E146E26
:10371000BD0E156E166A14C0E6FF15C0E6FF16C092
:10372000E6FFF7EC61F0E552E552E552070EE66E72
:10373000E66AB8EC54F0E552E552F80E146EBC0E91
:10374000156E166A14C0E6FF15C0E6FF16C0E6FF48
:10375000F7EC61F0E552E552E5528B828B84000E66
:10376000E66EE66AE80EE66E030EE66EFA0EE66EAA
:10377000E66A24EC5BF0146E060EE15E14508B9248
:103780008B94020EE66E88EC60F0E552E66AD8ECA7
:1037900055F0E5520E01176B0E01186B0E01196BF7
:1037A000ACEC51F0010EF36E700EF3CFDBFFE2ECE8
:1037B00022F042EC25F08150020B04E00E01AA0534
:1037C00001E092D00E01AA6B0E01AD050AE10E01D7
:1037D000AD6B030EE66E88EC60F0E5520E01010E53
:1037E000A86F040EE66EE66AB8EC54F0E552E552B6
:1037F000E30E146EBC0E156E166A14C0E6FF15C0FB
:10380000E6FF16C0E6FFF7EC61F0E552E552E5523F
:103810008B84010EE66E6AEC0DF0E5520E0EF36E2F
:103820006F0EF3CFDBFF8B940E01200E026F4E0E56
:10383000036F8250010B1DE00E01000ED88002556F
:10384000000E035516E20E010207000E035B000096
:103850000000000000000000000000000000000068
:103860000000000000000000000000000000000058
:10387000E0D70E010251031137E18B828B84040ED5
:10388000E66EE66AB8EC54F0E552E552CD0E146EE1
:10389000BC0E156E166A14C0E6FF15C0E6FF16C012
:1038A000E6FFF7EC61F0E552E552E55230EC0FF03F
:1038B000010816E1010EE66EE66A3BEC3BF0E552CC
:1038C000E552E66A010EE66E3BEC3BF0E552E5524E
:1038D00015CEE6FF020EE66E3BEC3BF0E552E552FC
:1038E00082B0FED78B928B948150040B04E00E01C2
:1038F000A90501E0C3D10E01AD050AE10E01AD6BD2
:10390000030EE66E88EC60F0E5520E01010EA86F22
:10391000040EE66EA3EC55F0E552040EE66EE66A80
:10392000B8EC54F0E552E552C50E146EBC0E156E9F
:10393000166A14C0E6FF15C0E6FF16C0E6FFF7ECF6
:1039400061F0E552E552E552D5EC12F0010817E1BD
:103950008B848B82BA0E146EBC0E156E166A14C060
:10396000E6FF15C0E6FF16C0E6FFF7EC61F0E55292
:10397000E552E552B9EC09F08B948B9275D1B10EFA
:10398000146EBC0E156E166A14C0E6FF15C0E6FF75
:1039900016C0E6FFF7EC61F0E552E552E5528B8484
:1039A0000E011251010A01E13FD1030A01E13CD1AC
:1039B000060A01E110D1070A25E0030A01E034D12B
:1039C000AD0E146EBC0E156E166A14C0E6FF15C05F
:1039D000E6FF16C0E6FFF7EC61F0E552E552E5526E
:1039E0000E01A96BFE0E0E011515080DF35002090C
:1039F000E66E13CEE6FFF5EC39F0E552E55245EC04
:103A000011F031D1A90E146EBC0E156E166A14C0D9
:103A1000E6FF15C0E6FF16C0E6FFF7EC61F0E552E1
:103A2000E552E5520E01010EA96F050EE66EA3ECFC
:103A300055F0E552050EE66EE66AB8EC54F0E55234
:103A4000E552990E146EBC0E156E166A14C0E6FF90
:103A500015C0E6FF16C0E6FFF7EC61F0E552E5524F
:103A6000E552E2EC22F042EC25F00E01A90504E05B
:103A70008150040B01E0ADD00E01010EA96FFE0EC6
:103A80000E011515080DF3500409E66E13CEE6FF7E
:103A9000F5EC39F0E552E552E76E710EE7CFDBFF4A
:103AA000710EDB5002E172EC26F0E66AD1EC16F002
:103AB000E5520E01A90501E085D08150020B01E11C
:103AC00081D0E2EC22F042EC25F0010EE66ED1EC62
:103AD00016F0E55217CE1AFE0E011B6B1C6B1D6B08
:103AE00018CE14F0156A166A176A1ACE06F01BCEA5
:103AF00007F01CCE08F01DCE09F00B6A010E0C6E0B
:103B00000D6A0E6AD0EC62F00250000114240E011E
:103B10001A6F0350000115200E011B6F04500001A5
:103B200016200E011C6F0550000117200E011D6F9D
:103B300019CE14F0156A166A176A1ACE06F01BCE53
:103B400007F01CCE08F01DCE09F00B6A010E0C6EBA
:103B50000D6A0E6AD0EC62F00250000114240E01CE
:103B60001A6F0350000115200E011B6F0450000155
:103B700016200E011C6F0550000117200E011D6F4D
:103B8000050EE66E080EE66EB8EC54F0E552E5520E
:103B90001ACEE6FF1BCEE6FF1CCEE6FF1DCEE6FFEB
:103BA000930E146EBC0E156E166A14C0E6FF15C097
:103BB000E6FF16C0E6FFF7EC61F0176E070EE15E58
:103BC000175077D70E01A96B020EE66ED1EC16F0F6
:103BD000E55247D748D0A90E146EBC0E156E166A72
:103BE00014C0E6FF15C0E6FF16C0E6FFF7EC61F073
:103BF000E552E552E5520E01010EA96F0E01146B5C
:103C00000E01145103E1E2EC22F0FAD7030EE66E46
:103C1000D1EC16F0E552E2EC22F0040EE66ED1ECA7
:103C200016F0E552F8D71FD0AD0E146EBC0E156E0F
:103C3000166A14C0E6FF15C0E6FF16C0E6FFF7ECF3
:103C400061F0E552E552E5520E01A96B0E01010E3D
:103C5000AC6FE66A6AEC0DF0E552020EF36E6F0E81
:103C6000F3CFDBFF00D08B94040EE66EA3EC55F08F
:103C7000E552050EE66EA3EC55F0E552700EDB043E
:103C800002E0D6EF22F08250010B02E1D6EF22F0E3
:103C9000690EDB6A6A0EDB6A8B8282A04AD2690EE9
:103CA000DB5006E1B5EC51F0E76E670EE7CFDBFFC6
:103CB0000E01AE5101E027D2670EDB500D0A01E183
:103CC00013D28D0A01E110D2010A01E10DD20E0AD0
:103CD00001E10AD2060A01E107D2010A01E104D298
:103CE000030A01E101D2070A01E1FED11D0A01E147
:103CF000FBD1030A01E1F8D11C0A01E1E4D1800AF9
:103D000001E1C7D19E0A01E184D19F0A01E16FD18F
:103D1000060A01E146D10E0A01E112D1010A01E1D0
:103D2000F7D0020A01E1A7D0050A6FE0010A08E016
:103D3000050A01E0E7D1020EF36E6F0EF3CFDBFF51
:103D40000F0E0E011215020823E16F0EDB50020860
:103D50001FE1690EDB5004E0690EDB503D080BE209
:103D6000690EDB6A0E01146BE2EC22F00E011451B5
:103D7000FBE00E01146B690EDB28EA6A000FE96EA6
:103D8000050EEA22EF50E66EF8EC51F0E5523CD019
:103D9000690EDB5030E16F0EDB50020812E1FE0EBF
:103DA0000E011515080DF3500209E66E13CEE6FF5D
:103DB000F5EC39F0E552E552E76E710EE7CFDBFF27
:103DC00010D0FE0E0E011515080DF3500E09E66E0B
:103DD000E66AF5EC39F0E552E552E76E710EE7CF91
:103DE000DBFF710EDB5002E172EC26F0010EE66E95
:103DF000E4EC35F0E552020EE66EE4EC35F0E55207
:103E0000E66EF8EC51F0E5527ED1690EDB5029E107
:103E1000060EE66E030EE66E030EE66E9AEC39F0C1
:103E2000E552E552E552E76E720EE7CFDBFF720E08
:103E3000DB0410E102C3E6FF01C3E6FF00C3E6FFB7
:103E40007EEC36F0E552E552E552010EE66EE4EC0A
:103E500035F0E552720EDBCFE6FFF8EC51F0E5529B
:103E600009D0020EE66EE4EC35F0E552E66EF8ECB1
:103E700051F0E55248D1690EDB50020A38E0030ADE
:103E800008E0010A01E03AD0B5EC51F00E01046FF0
:103E90003ED0B5EC51F00E01056F080E0E01155D18
:103EA00004E0090E0E01155D0DE105CEE6FF04CE1E
:103EB000E6FFF5EC39F0E552E552E76E710EE7CF1B
:103EC000DBFF12D0FE0E0E011515080DF3500E018A
:103ED0000511E66E04CEE6FFF5EC39F0E552E55249
:103EE000E76E710EE7CFDBFF2DEC3AF010D0710ECC
:103EF000DBCFE6FFF8EC51F0E55209D0E66AE4ECDE
:103F000035F0E552E66EF8EC51F0E55200D0FBD00A
:103F1000010EE66EA2EC37F0E552F3CF02FEF4CFCD
:103F200003FE0E010251E66EF8EC51F0E55203CEAD
:103F300014F0156A1450E66EF8EC51F0E552E3D037
:103F4000B5EC51F00301006F03010051120A1BE0B0
:103F5000100A15E0130A07E0100A01E020D00E0154
:103F6000010EA96F1DD00E01010EA96F0E01010EE9
:103F7000AD6F010E0E0115150E01156F11D00E015A
:103F8000010EAA6F0DD00E01010EAA6F0E01010ED7
:103F9000AD6F010E0E0115150E01156F01D000D089
:103FA000B2D0B5EC51F00301006F03010051010ADA
:103FB00007E0010A01E004D09280010EC26E04D035
:103FC0009282050EC26E00D0FA0EE66E0FEC60F023
:103FD000E552C282C2B2FED7C450E66EF8EC51F090
:103FE000E552C350E66EF8EC51F0E5528CD0690E04
:103FF000DB5005E1B5EC51F00301006F09D000C3BF
:10400000E6FFB3EC3AF0E552E66EF8EC51F0E5521B
:104010007AD0B5EC51F00301006F03010051210A81
:104020002DE0010A21E0300A18E0120A0FE0030A2D
:1040300006E0010A01E02BD0FBEC59F029D0B5ECE9
:1040400051F0E66ED4EC59F0E55222D0B5EC51F0C7
:10405000E66EC4EC59F0E5521BD0B5EC51F0E66EBB
:1040600016EC5BF0E55214D0010EE66E74EC5AF0DB
:10407000E552E66EF8EC51F0E5520AD0E66A74ECCF
:104080005AF0E552E66EF8EC51F0E55201D000D05E
:104090003AD0050EE66E030EE66E04C3E6FF03C3D8
:1040A000E6FF02C3E6FF01C3E6FF00C3E6FF1EEC26
:1040B00058F0146E070EE15E1450010EF36E6A0E96
:1040C000F3CFDBFF20D0010EE66E030EE66E00C3D9
:1040D000E6FFC0EC56F0E552E552E552010EF36EF4
:1040E0006A0EF3CFDBFF0FD0B5EC51F0E66E690E30
:1040F000DB50EA6A000FE96E030EEA22E552E75050
:10410000EF6E01D000D0690EDB50146E156AD890A6
:10411000155004E6FD0E145C000E155802E2690EFF
:10412000DB2A6A0EDB0404E16A0EDB6A690EDB6AD5
:10413000B4D5690EDB50EA6A000FE96E030EEA227D
:10414000EF6A670EDB50920A01E11FD2030A01E118
:1041500016D21D0A01E107D2070A01E1F5D1030ACF
:1041600001E1B2D1010A01E1A9D1060A01E19AD126
:104170000E0A01E188D1010A0BE0800A03E0010A7E
:1041800001E012D2030EE66EE4EC35F0E5520DD2FA
:1041900020C32CF321C32DF322C32EF320C30BFE27
:1041A0000E010C6B0D6B0E6B080E1F0B0BCE14F07B
:1041B0000CCE15F00DCE16F00ECE17F007E0D8900D
:1041C0001436153616361736E806F9E121C318F00D
:1041D000196A1A6A1B6A145018240E010B6F1550C5
:1041E00019200E010C6F16501A200E010D6F17507A
:1041F0001B200E010E6F080E1F0B0BCE14F00CCE01
:1042000015F00DCE16F00ECE17F007E0D89014364C
:10421000153616361736E806F9E122C318F0196A82
:104220001A6A1B6A145018240E010B6F15501920BE
:104230000E010C6F16501A200E010D6F17501B2027
:104240000E010E6F0BCE14F00CCE15F00DCE16F045
:104250000ECE17F02C0E1426000E1522000E16227C
:10426000000E1722142A000E1522000E1622000E30
:104270001722FC0E0B6E0F0E0C6E0D6A0E6A14C028
:1042800006F015C007F016C008F017C009F008ECDA
:1042900063F002C014F003C015F004C016F005C0AE
:1042A00017F0145015101610171045E10BCE07FE2D
:1042B0000CCE08FE0DCE09FE0ECE0AFE2C0E0E010F
:1042C0000727000E0E010823000E0E010923000E21
:1042D0000E010A23FC0E0B6E0F0E0C6E0D6A0E6A99
:1042E00007CE06F008CE07F009CE08F00ACE09F096
:1042F00008EC63F006C007FE07C008FE08C009FE10
:1043000009C00AFEFC0E0B6E0F0E0C6E0D6A0E6AD3
:1043100007CE06F008CE07F009CE08F00ACE09F065
:10432000D0EC62F002C007FE03C008FE04C009FE24
:1043300005C00AFE4FD00BCE07FE0CCE08FE0DCEF8
:1043400009FE0ECE0AFE2C0E0E010727000E0E01EE
:104350000823000E0E010923000E0E010A23FC0E95
:104360000B6E0F0E0C6E0D6A0E6A07CE06F008CEAD
:1043700007F009CE08F00ACE09F008EC63F006C099
:1043800007FE07C008FE08C009FE09C00AFE0E01AC
:10439000072B000E0E010823000E0E010923000E4C
:1043A0000E010A23FC0E0B6E0F0E0C6E0D6A0E6AC8
:1043B00007CE06F008CE07F009CE08F00ACE09F0C5
:1043C000D0EC62F002C007FE03C008FE04C009FE84
:1043D00005C00AFE07CE14F008CE15F009CE16F07F
:1043E0000ACE17F0146A156A176A100ED8901732A1
:1043F000163215321432E806F9E114C020F307CE64
:1044000014F008CE15F009CE16F00ACE17F0146A93
:10441000166A176A080ED8901732163215321432FF
:10442000E806F9E114C021F30E0107510301226FE0
:104430000301130E236F03011C0E246F03010C0EE6
:10444000256F03010D0E266F0301276B0301286BF7
:104450000301296B03012A6B03012B6B03012F6BF3
:10446000060EE66EC9EC34F0E552E66A000EE66E22
:10447000030EE66E300EE66E10EC35F0E552E552B6
:10448000E552E55292D0E66A000EE66E030EE66E45
:10449000690EDBCFE6FF10EC35F0E552E552E55250
:1044A000E55283D000C3E6FF01C3E6FF3BEC3BF0DF
:1044B000E552E5520E01010EA86F77D000C3E6FF6A
:1044C0003CEC5CF0E55271D003010051166E176AA6
:1044D00016C017F0166A0301015100011624146E6C
:1044E000000E1720156E6D0E14C0DBFF6E0E15C08A
:1044F000DBFF03010251166E176A16C017F0166A29
:104500000301035100011624146E000E1720156ECE
:104510006B0E14C0DBFF6C0E15C0DBFF000EE66EE9
:10452000E66A6D0EDBCFE6FF6E0EDBCFE6FF6B0EAD
:10453000DBCFE6FF6C0EDBCFE6FF24EC5BF0146E06
:10454000060EE15E145031D003C3E6FF02C3E6FF5E
:1045500001C3E6FF00C3E6FF42EC4FF0E552E5522F
:10456000E552E55222D002C3E6FF01C3E6FF00C3D5
:10457000E6FFC2EC4FF0E552E552E55216D000C31B
:10458000E6FFACEC5EF0E55210D003C3E6FF02C3D9
:10459000E6FF01C3E6FF00C3E6FF01EC5FF0E55272
:1045A000E552E552E55201D000D08B92D7EF1BF0D7
:1045B000730EE15C02E2E16AE552E16EE552E7CF9B
:1045C000D9FF120071EC3DF0200E0401E76EB7191F
:1045D000E8AE02D0E73402D0E750B75D01E251D235
:1045E0006550020B01E012000E01A451A51102E179
:1045F000000E08D0A4CEE9FFA5CEEAFFEF50800B55
:1046000001E0010E000901E016D18B82A651530A88
:1046100001E1E3D0070A01E1C9D0050A01E181D037
:10462000300A74E0220A5CE0020A43E0440A33E004
:10463000210A26E0270A13E0010A07E0FD0A02E04A
:10464000FF0AF8D0A7CE20FEE0D00E01020E206FA8
:10465000100E216F020E226F0D0E236FD6D00E01A9
:10466000030E206F17CE22FE18CE23FE19CE24FE95
:104670008250010B256F12CE26FE13CE27FEC5D029
:104680000E01240E206F1FCE14F0156A1FCE21FEDE
:104690001E51226FBAD00E01050E206F010EE66E7C
:1046A000A2EC37F0E552F3CF02FEF4CF03FE0E0189
:1046B0008CD00E01410E206F016B200E015D01E3D5
:1046C000A4D064EC34F0E66E0E010129EA6A200FF2
:1046D000E96E0E0EEA22E552E750EF6E012BEDD7A0
:1046E0000E01430E206F210EE66E0E0EE66E3A0EA0
:1046F000E66E0FCEE6FF10CEE6FF11CEE6FF8BECA6
:1047000034F0146E060EE15E14507FD00E01610E7F
:10471000206F06CEE6FFB3EC3AF0E5520E01216FB2
:1047200074D00E01510E206F05CEE6FF04CEE6FFD9
:10473000ADEC38F0E552E5520E01216F2DEC3AF068
:104740000E01016B300E015D12E2E66AE4EC35F019
:10475000E552E66E020E0E010125EA6A200FE96EAF
:104760000E0EEA22E552E750EF6E012BEBD741EC3B
:104770003AF0F350E66E020E0E010125EA6A200FB0
:10478000E96E0E0EEA22E552E750EF6E47EC3AF082
:10479000F350E66E030E0E010125EA6A200FE96E62
:1047A0000E0EEA22E552E750EF6E2FD005CEE6FF5F
:1047B00004CEE6FF3CEC39F0E552E552F3CF02FEC1
:1047C000F4CF03FE0E01540E206FF350216FF4CF8F
:1047D00014F0156AF4CF22FE18D00E01530E206F8C
:1047E000016B3F0E015D11E2E66AE4EC35F0E55243
:1047F000E66E0E010129EA6A200FE96E0E0EEA222A
:10480000E552E750EF6E012BECD7400EE66E200E1E
:10481000E66E0E0EE66E010EE66EE66E76EC3EF08D
:10482000146E050EE15E1450F3CFA4FEF4CFA5FE86
:104830000E01A66B8B92A251A31102E1000E08D0CB
:10484000A2CEE9FFA3CEEAFFEF50800B01E0010EFC
:10485000000901E016D18B8200C5A6FE00C5A7FEA7
:10486000A651740A01E1F0D0070A01E1E9D0010A7A
:1048700001E1E2D0210A01E1DCD0010A01E1D4D05A
:10488000060A01E1CBD0050A01E1C2D0A00A01E18C
:10489000B6D0010A01E1B0D0B20A01E19AD0200AF3
:1048A00001E18BD0030A01E184D0220A01E179D031
:1048B000020A69E0620A61E0010A5BE0030A4DE076
:1048C000010A31E02A0A28E00F0A24E0010A05E083
:1048D000060A01E0C2D0020EADD002C5E6FF01C556
:1048E000E6FFB8EC54F0E552E552030EE66E050E15
:1048F000E66E900E146EBC0E156E166A14C0E6FFBE
:10490000E66E16C0E6FFF7EC61F0176E050EE15E8D
:1049100017508CD0050E8ED0AC5103E1010EA96F5B
:1049200086D0AC6B84D001C5E6FFC9EC34F0E5520B
:104930000E01020E016F320E015D01E377D00151CD
:10494000EA6A000FE96E050EEA22EF50E66EFAEC15
:1049500034F0E5520E01012BEED7E66A010EE66E49
:10496000050EE66E3F0EE66E10EC35F0E552E552B0
:104970004CD00E01010E146F59D00E01010E146FB0
:104980000E01240E57D003C5E6FF02C5E6FF01C5A0
:10499000E6FFC0EC33F0E552E552E5520E01410E60
:1049A00049D003C50FFE02C510FE01C511FE430E1E
:1049B00041D001C506FE610E3DD002C5E6FF01C52E
:1049C000E6FF3BEC3BF0E552E5520E01010EA86F0D
:1049D0002ED0040EE66E050EE66E3A0EE66E03C5A8
:1049E000E6FF02C5E6FF01C5E6FFFBEC33F0146EFF
:1049F000060EE15E14501AD0A1EC3AF017D002C5B1
:104A0000E6FF01C5E6FF74EC3AF0E552E5520ED040
:104A100001C504FE02C505FE510E0CD001C504FE01
:104A200002C505FE540E06D04DEC3AF00E01A66903
:104A300014D0530EA66F11D0010EA96FAB6B0CD022
:104A4000A96B010EAB6F08D0A96BAB6B01C517FE4C
:104A500002C518FE03C519FEA66B400EE66E000ED9
:104A6000E66E050EE66EE66A010EE66E76EC3EF048
:104A7000146E050EE15E1450F3CFA2FEF4CFA3FE38
:104A80008B9212000E01A80501E02BD1E66AB3EC6F
:104A90003AF0E5520E01126F010EE66EB3EC3AF0F9
:104AA000E5520E01136F020EE66EB3EC3AF0E552DA
:104AB0000E01156F030EE66EB3EC3AF0E5520E01EF
:104AC000166F0E01A86B0E01176B186B196BE66A57
:104AD000E66AB8EC54F0E552E5528A0E146EBC0E4C
:104AE000156E166A14C0E6FFE66E16C0E6FFF7EC18
:104AF00061F0E552E552E5520E0115417F0B080ABF
:104B000030E00F0A2AE0010A24E0030A1EE0010A4D
:104B100018E0070A12E0010A0CE0030A06E0010AA5
:104B200024E1790E146EBC0E23D0680E146EBC0EF8
:104B30001FD0570E146EBC0E1BD0460E146EBC0E4A
:104B400017D0350E146EBC0E13D0240E146EBC0E8E
:104B50000FD0130E146EBC0E0BD0020E146EBC0ED2
:104B600007D0F10E146EBB0E03D0E00E146EBB0E18
:104B7000156E166A14C0E6FFE66E16C0E6FFF7EC87
:104B800061F0E552E552E552010EE66EE66AB8ECD8
:104B900054F0E552E552DA0E146EBB0E156E166A2D
:104BA00014C0E6FFE66E16C0E6FFF7EC61F0E552D2
:104BB000E552E5520E011251040A26E0070A20E0F0
:104BC000010A0CE0030A06E0010A31E1CA0E146E84
:104BD000BB0E07D0BA0E146EBB0E03D0AA0E146E15
:104BE000BB0E156E166A14C0E6FFE66E16C0E6FF31
:104BF000F7EC61F0E552E552E5520E01020E15D0D8
:104C00009A0E146EBB0E03D08A0E146EBB0E156E78
:104C1000166A14C0E6FFE66E16C0E6FFF7EC61F018
:104C2000E552E552E5520E01040E056F11D07A0EE1
:104C3000146EBB0E156E166A14C0E6FFE66E16C043
:104C4000E6FFF7EC61F0E552E552E5520E01056929
:104C5000020EE66EE66AB8EC54F0E552E552740EC8
:104C6000146EBB0E156E166A14C0E6FFE66E16C013
:104C7000E6FFF7EC61F0E552E552E552FF0E0E015A
:104C8000055D20E0FE0E1515080DF3500511E66ECA
:104C900013CEE6FFF5EC39F0E552E552010812E1DA
:104CA0002DEC3AF00E01016B100E015D1AE2E66A7E
:104CB000E4EC35F0E552E66EDAEC54F0E5520E0124
:104CC000012BF2D7640E146EBB0E156E166A14C05B
:104CD000E6FFE66E16C0E6FFF7EC61F0E552E5523E
:104CE000E5521200D9CFE6FFE1CFD9FF020EE1264F
:104CF000E66AD8EC55F0E552E66AE66AB8EC54F09C
:104D0000E552E552540E146EBB0E156E166A14C0B1
:104D1000E6FFE66E16C0E6FFF7EC61F0E552E552FD
:104D2000E552010EE66EE66AB8EC54F0E552E55243
:104D3000440E146EBB0E156E166A14C0E6FFE66EC6
:104D400016C0E6FFF7EC61F0E552E552E552DE529F
:104D5000030EDD6E010EDB50146E156AD8901550EF
:104D600004E6FF0E145C000E1558F1E2C80EDF6E6B
:104D7000DF5000085EE2010EDB407F0BE8B08B8263
:104D8000E8A08B92010EDB50010BE8B08B84E8A009
:104D90008B94000EE66EE66A010EDB50146E156A07
:104DA000F40E1502F3CF15F014501526F40E14026C
:104DB000F3CF14F0F4501526D00ED8801456070EF9
:104DC000155614C0E6FF15C0E6FF020EE66EE66A51
:104DD00024EC5BF0166E060EE15E1650E2EC22F05B
:104DE000000EE66EE66A010EDB50146E156AF40ED4
:104DF0001502F3CF15F014501526F40E1402F3CF5C
:104E000014F0F4501526D00ED8801456070E1556FF
:104E100014C0E6FF15C0E6FF020EE66EE66A24EC5B
:104E20005BF0166E060EE15E1650E2EC22F0DF0635
:104E30009FD7010EDB068ED7D9CFE6FFE1CFD9FF92
:104E4000FE0EDBCFE6FFDAEC54F0E552E552E7CF99
:104E5000D9FF1200D9CFE6FFE1CFD9FF050EE12639
:104E6000580EF36E030EF3CFDBFF020EF36E040E4B
:104E7000F3CFDBFF9B8C030EDBCF14F0DB06040EBD
:104E8000DBCF15F001E2DB061450151001E0F3D77B
:104E9000C26A860EC16E0F01FC0E486F0F019F0E95
:104EA000496F1C0E926E260E936E190E946E200E94
:104EB000806EC10E816E400E826E8B828B94D0A26A
:104EC00003D00E01006902D00E01006BD0827982FE
:104ED000799E799C799A7988D59CD59AD586D584FE
:104EE000D582D590D59ED66AF294F19E0E01BB690B
:104EF000BC69080E7E6E7F6A1A0EB06E200EAD6E13
:104F0000AC6A9F9A9D9ACB68040ECA6E9D92BB6A4A
:104F10000C0EBA6EB56AB46A0E010E0ECC6F0F019C
:104F2000406BC69A8A88C79EC79CC688C696C69498
:104F3000C692C680C68ABFEC59F00E01A26BA36B65
:104F40000E01A46BA56BE1EC3CF08B928B84DF6AC5
:104F50000F0EDF5C21E2F00EDF24F66E0F0EF76E0F
:104F6000F86A0800010EF5CFDBFFDF50F76A2D0F5E
:104F7000F66EC70EF7220800020EF5CFDBFF020E19
:104F8000DB50F36E010EDB50F35C01E103D08B824A
:104F90008B84FDD7DF2ADCD7050EE15C02E2E16AF3
:104FA000E552E16EE552E7CFD9FF12001200120080
:104FB000120012009EEF60F012001E0EE66E010E4F
:104FC000E66E3FEC3EF0E552E552400EE66E000E16
:104FD000E66E050EE66EE66A010EE66E76EC3EF0D3
:104FE000146E050EE15E1450F3CFA2FEF4CFA3FEC3
:104FF00012000401D6051EE10401D7051BE1D7DF2D
:1050000065920401D76B0E01100EA06F0E0EA16FFA
:10501000A007000EA15BA051A111FAE16584080E62
:10502000A06F070EA16FA007000EA15BA051A111F8
:10503000FAE165941200D9CFE6FFE1CFD9FFFD0E6A
:10504000DBCF08F0FE0EDBCF09F0E868081802E1BC
:105050007F0E09182FE0030E081801E1095028E01F
:10506000020E081801E1095021E0010E081801E1C3
:1050700009501AE0740E081801E1095013E0750E8A
:10508000081801E109500CE0730E081801E10950FD
:1050900005E0720E08180FE109500DD089DF0BD022
:1050A00085DF09D084DF07D088DF05D085DF03D016
:1050B00081DF01D07EDF010EE552E7CFD9FF12007C
:1050C00017040A0099229313534554434F4D504DF2
:1050D0004F44454C22002B040B0099223D3D3D3DA1
:1050E0003D3D3D3D3D3D3D3D2200390415009922A9
:1050F00011303D4336342200480416009922313DD8
:1051000056494332302200570417009922323D504D
:105110004C5553342200640418009922333D433126
:10512000362200720419009922343D43313238226C
:10513000008F041A009922353D32305858284255C4
:10514000494C442D494E2054415045292200AC047D
:105150001B009922363D5045542F43424D2032309A
:105160005858202620333058582200C2041C009979
:1051700022373D5045542F43424D20343058582259
:1051800000E3041D009922383D5045542F43424D01
:105190002038305858223A8D3230303A4324B241C8
:1051A0002400F90420008B4324B3223022B043248E
:1051B000B1223822A73231000F052900992211307F
:1051C0003D50414C204F52203530485A2200300586
:1051D0002A009922313D4E545343204F52203630FD
:1051E000485A223A8D3230303A5624B2412400488F
:1051F000052D008B5624B3B1223022AF5624B3B113
:10520000223122A73431007205640099221111491C
:10521000532054484953204F4B28592F4E29223AA6
:105220008D3230303A8B4124B3B1225922A731302C
:10523000008D056E009922534156494E47204E4538
:10524000572053455454494E47532200A1056F003F
:1052500044B2313A8B4324B2223522A744B2320001
:10526000B20570009F312C442C312C22434647223A
:1052700000CA05710098312C22434647223B432443
:105280003B56243AA0313AA200DA05C800992253CD
:10529000454C4543543A223B00ED05C900A1412449
:1052A0003A8B4124B22222A732303100F705CA00DE
:1052B0009941243A8E0000000B040A009E313034DC
:1052C00030000000000000A9008D01048D0204855B
:1052D000B485B685B8ADC4E1C923D009A98585B127
:1052E000A9C74C5204AD80E1C92AD017A97585B170
:1052F000A9C785B2A98085B3A97C85B5A97E85B7E4
:105300004C6004A90885B1A9B885B2A92E85B3A9B6
:105310002A85B5A92C85B7A000B94F03998F02C87B
:10532000C0ACD0F578AD42E809088D42E8AD40E860
:1053300009088D40E8AD4CE829EF8D4CE8202203A8
:1053400020E102A900855EAD40E829EF8D40E8200C
:105350001903200203AD10E809208D10E820F002A7
:10536000AD10E809208D10E8AD40E829F78D40E840
:10537000245E1008AD10E809204CCA04AD10E829DD
:10538000DF8D10E8AD40E809088D40E8065E88D062
:10539000D7200B0320E10220BB02A000855F91B360
:1053A00091B591B720BB02A001856091B391B591F1
:1053B000B720BB02856120BB0285624C8F0220BBF7
:1053C000029161EE0080E661D002E662A55FC561F0
:1053D000D0ECA560C562D0E620B202A900586CB13D
:1053E0000020190320F9024CBE02201903AD40E849
:1053F00029F78D40E818AD40E809088D40E8AD1068
:10540000E8292069FF265E88D0E3200B03A55E60B3
:10541000200203AD10E829DF8D10E820F00260AD16
:1054200011E809048D11E860AD40E809108D40E8ED
:1054300060AD11E829FB8D11E860AD40E829F78DDA
:1054400040E809088D40E860A008AD4DE82910F05B
:10545000F9A9108D4DE8600B040A009E31303430FC
:10546000000000000000A9008D01048D020485B435
:1054700085B685B8ADC4E1C923D009A98585B1A990
:10548000C74C5204AD80E1C92AD017A97585B1A9CE
:10549000C785B2A98085B3A97C85B5A97E85B74C9F
:1054A0006004A90885B1A9B885B2A92E85B3A92A37
:1054B00085B5A92C85B778AD42E809088D42E8ADDD
:1054C00040E809088D40E8A93C8D11E820E102A9D7
:1054D00000855EAD13E829F78D13E820190320023B
:1054E00003AD10E809108D10E820F002AD10E809B6
:1054F000108D10E8AD40E829F78D40E8245E1008D3
:10550000AD10E809104CB704AD10E829EF8D10E894
:10551000AD40E809088D40E8065E88D0D7200B032F
:1055200020E10220BB02A000855F91B391B591B745
:1055300020BB02A001856091B391B591B720BB0259
:10554000856120BB0285624C8F0220BB029161EE17
:105550000080E661D002E662A55FC561D0ECA5607F
:10556000C562D0E620B202A900586CB10020190330
:1055700020F9024CBE02201903AD40E829F78D4006
:10558000E818AD40E809088D40E8AD10E829106939
:10559000FF265E88D0E3200B03A55E60200203ADEA
:1055A00010E829EF8D10E820F00260AD11E8090441
:1055B0008D11E860AD13E809088D13E860AD11E8BE
:1055C00029FB8D11E860AD40E829F78D40E8090816
:1055D0008D40E860A008AD11E82980F0F96020480E
:1055E00003209303852D8531859D209303852E858A
:1055F00032859F209303852F2093038530209303CA
:10560000912FE62FD002E630A52DC52FD0EFA52E85
:10561000C530D0E9208D03A9128D0203A9878D031F
:1056200003A9528D2705A9D58D2805A90D8D29051A
:10563000A90385EF4CCC038686A7022078A5010933
:105640000A8501A50129F78501A90085FBA008A508
:10565000000910850020B60320C50324FB1007A510
:105660000109104C7603A50129EF850120BE030630
:10567000FB88D0E420C50320BE03A50029EF8500E8
:1056800060A50109088501A00820B60320C50318FC
:1056900020BE03A501291069FF26FB88D0EE20C596
:1056A0000320BE03A5FBCE19FF60AD10FD2904D079
:1056B000F960A50129FD850160A501090285016048
:1056C000A2A7A9009D0002E8D0F8A9D08DE402A904
:1056D000718DF2028DF402A9988DF302A9948DF5D3
:1056E00002584C1287131001009E3332AA3235360D
:1056F000ACC2283434290000000000000000000083
:1057000000000000A90185F9A52C85FAA900A003D5
:105710008891F9D0FBA52CC912F046A92585F9A9D5
:105720001385FAA98085F7A52C85F818A5F769A532
:1057300085F7A90065F885F8B8A000B1F791F9A53B
:10574000FAC912D006A5F9C980F016C6F7A5F7C99F
:10575000FFD002C6F8C6F9A5F9C9FFD002C6FA50B3
:10576000DA4C801278AD229109088D2291A9DE8D44
:105770002C91A9828D2E91AD1C91090C29FD8D1CB7
:1057800091A90085FB208603AD139109408D1391EB
:10579000209B0324FB1008AD1F9109404CC012ADA3
:1057A0001F9129BF8D1F9120930306FB88D0E12014
:1057B0009B03209303AD139129BF8D1391205903AF
:1057C00085F785AE852D20590385F885AF852E2078
:1057D000590385F920590385FAA5F9C901D00EA509
:1057E000FAC904F00DC910F009C912F005A9014C5D
:1057F000A403A52C38E5FA1865F885F885AF852E41
:10580000A52C85FAA9004CA403AD1C91090E8D1C92
:1058100091208603EE0F90209B0318209303AD1F69
:1058200091294069FF26FB88D0EDCE0F90209B0385
:10583000209303AD139129BF8D1391A5FB60AD2D6E
:10584000912902F0F9AD2191A00860AD20910908DD
:105850004CA003AD209129F78D2091604820590379
:1058600091F9E6F9D002E6FAA5F7C5F9D0EFA5F867
:10587000C5FAD0E9205103A91B8D0F902036E568A9
:10588000D0202033C5A9938D7702A9528D7802A923
:10589000D58D7902A90D8D7A02A90485C658184CB8
:1058A00034C8586020510320B603852D853185AE5C
:1058B00020B603852E853285AF20B603852F20B60E
:1058C00003853020B603912FE62FD002E630A52DB8
:1058D000C52FD0EFA52EC530D0E920B003A9838D08
:1058E0000203A9A48D0303A9528D7702A9D58D784F
:1058F00002A90D8D7902A90385C64CE4038BE3A7A9
:105900000278AD0DDCA50109288501A50029EF85E8
:1059100000A90085FBA50129DF85014C700385FBEB
:10592000A008A50009108500AD0DDC2910F0F9A52F
:105930000129F7850124FB1007A50109104C9403E8
:10594000A50129EF85010908850106FB88D0E0A59E
:105950000129F7850109088501A50029EF85006067
:10596000A50109208501A90185FBAD0DDC2910F0F9
:10597000F9A50129F78501AA0908A8188401A5013C
:105980008601291069FF26FB90F28401A5FBCE2039
:10599000D0A00060A2A7EEEC03A9008DA602E8D07B
:1059A000F5584C80A40B1C0A009E373230300000A2
:1059B00000000000000000000000000000000000E7
:1059C0000000000078A9008D011C8D021C8D031CB5
:1059D000AD0DDCA50109288501A50029EF8500A9E9
:1059E0000085FAA50129DF850120651C201B0B8598
:1059F000FB8D1012201B0B85FC8D1112201B0B85BB
:105A0000FD201B0B85FE4C4C0BA008A50009108542
:105A100000AD0DDC2910F0F9A50129F7850124FA64
:105A20001007A50109104C891CA50129EF85010962
:105A300008850106FA88D0E0A50129F78501090843
:105A40008501A50029EF850060A50109208501A039
:105A500008AD0DDC2910F0F9A50129F7850118A57D
:105A60000109088501A501291069FF26FA88D0E8F7
:105A7000A50129F7850109088501A5FACE20D06086
:105A8000201B0B91FDE6FDD002E6FEA5FBC5FDD077
:105A9000EFA5FCC5FED0E920150BA9588D4A03A936
:105AA0000D8D4B03A9938D4C03A9528D4D03A9D5A0
:105AB0008D4E03A90D8D4F03A90685D05800EAFF2E
:105AC000FFFFFFFFFFFFFFFFFFFFFFFEFEFEFEFEEB
:105AD000FEFEFEFEFEFEFEFDFDFDFDFDFDFDFDFDEF
:105AE000FDFDFDFCFCFCFCFCFCFCFCFCFCFCFCFBF4
:105AF000FBFBFBFBFBFBFBFBFBFBFBFAFAFAFAFAFB
:105B0000FAFAFAFAFAFAF9F9F9F9F9F9F9F9F9F9FF
:105B1000F9F9F8F8F8F8F8F8F8F8F8F8F8F8F7F705
:105B2000F7F7F7F7F7F7F7F7F7F7F6F6F6F6F6F60B
:105B3000F6F6F6F6F6F6F5F5F5F5F5F5F5F5F5F50F
:105B4000F5F5F4F4F4F4F4F4F4F4F4F4F4F3F3F316
:105B5000F3F3F3F3F3F3F3F3F3F2F2F2F2F2F2F21C
:105B6000F2F2F2F2F2F1F1F1F1F1F1F1F1F1F1F120
:105B7000F1F0F0F0F0F0F0F0F0F0F0F0F0EFEFEF27
:105B8000EFEFEFEFEFEFEFEFEEEEEEEEEEEEEEEE2D
:105B9000EEEEEEEEEDEDEDEDEDEDEDEDEDEDEDED31
:105BA000ECECECECECECECECECECECECEBEBEBEB39
:105BB000EBEBEBEBEBEBEBEBEAEAEAEAEAEA58FFBA
:105BC000E9D4BEA8937D67523C2611FBE6D0BAA566
:105BD0008F79644E38230DF7E2CCB6A18B75604AFD
:105BE000341F09F4DEC8B39D87725C46311B05F093
:105BF000DAC4AF99836E58422D1701ECD6C1AB952C
:105C0000806A543F2913FEE8D2BDA7917C66503BC1
:105C1000250FFAE4CFB9A38E78624D37210CF6E058
:105C2000CBB59F8A745E49331D08F2DDC7B19C86EF
:105C3000705B452F1A04EED9C3AD98826C57412B87
:105C40001600EAD5BFAA947E69533D2812FCE7D11D
:105C5000BBA6907A654F39240EF8E3CDB8A28C77B5
:105C6000614B36200AF5DFC9B49E88735D47321C4C
:105C700006F1DBC6B09A856F59442E1803EDD7C2E2
:105C8000AC96816B55402A14FFE9D3BEA8937D677B
:105C9000523C2611FBE5D0BAA48F79634E38220D11
:105CA000F7E1CCB6A18B75604A341F09F3DEC8B2A8
:105CB0009D87715C46301B05EFDAC4AF9983E7FF1F
:105CC000FFFFFFFFFFFFFFFFFFFFFEFEFEFEFEFEEA
:105CD000FEFEFEFEFDFDFDFDFDFDFDFDFDFDFDFCF1
:105CE000FCFCFCFCFCFCFCFCFCFCFBFBFBFBFBFBFA
:105CF000FBFBFBFBFAFAFAFAFAFAFAFAFAFAFAF901
:105D0000F9F9F9F9F9F9F9F9F9F8F8F8F8F8F8F80A
:105D1000F8F8F8F8F7F7F7F7F7F7F7F7F7F7F6F611
:105D2000F6F6F6F6F6F6F6F6F6F5F5F5F5F5F5F51A
:105D3000F5F5F5F4F4F4F4F4F4F4F4F4F4F4F3F322
:105D4000F3F3F3F3F3F3F3F3F2F2F2F2F2F2F2F22B
:105D5000F2F2F2F1F1F1F1F1F1F1F1F1F1F0F0F033
:105D6000F0F0F0F0F0F0F0F0EFEFEFEFEFEFEFEF3B
:105D7000EFEFEEEEEEEEEEEEEEEEEEEEEEEDEDED44
:105D8000EDEDEDEDEDEDEDECECECECECECECECEC4C
:105D9000ECECEBEBEBEBEBEBEBEBEBEBEAEAEAEA55
:105DA000EAEAEAEAEAEAEAE9E9E9E9E9E9E9E9E95C
:105DB000E9E8E8E8E8E8E8E8E8E8E8E8E7E7A3FF92
:105DC000E7CEB69E856D543C240BF3DBC2AA9279D4
:105DD00061493018FFE7CFB69E866D553D240CF41F
:105DE000DBC3AA927A6149311800E8CFB79E866E6C
:105DF000553D250CF4DCC3AB937A6249311900E8B8
:105E0000D0B79F876E563D250DF4DCC4AB937B6203
:105E10004A321901E8D0B89F876F563E260DF5DD4E
:105E2000C4AC937B634A321A01E9D1B8A0876F579B
:105E30003E260EF5DDC5AC947C634B321A02E9D1E7
:105E4000B9A08870573F260EF6DDC5AD947C644B33
:105E5000331B02EAD1B9A18870583F270FF6DEC67E
:105E6000AD957C644C331B03EAD2BAA189705840CB
:105E7000270FF7DEC6AE957D654C341B03EBD2BA17
:105E8000A289715940280FF7DFC6AE967D654D3463
:105E90001C04EBD3BAA28A7159412810F8DFC7AFAE
:105EA000967E654D351C04ECD3BBA38A72594129FB
:105EB00010F8E0C7AF977E664E351D04ECD4E4FFC2
:105EC000FFFFFFFFFFFFFFFFFFFEFEFEFEFEFEFEE9
:105ED000FEFEFDFDFDFDFDFDFDFDFDFDFCFCFCFCF4
:105EE000FCFCFCFCFCFBFBFBFBFBFBFBFBFBFBFAFE
:105EF000FAFAFAFAFAFAFAFAF9F9F9F9F9F9F9F90A
:105F0000F9F9F8F8F8F8F8F8F8F8F8F7F7F7F7F714
:105F1000F7F7F7F7F7F6F6F6F6F6F6F6F6F6F5F51E
:105F2000F5F5F5F5F5F5F5F5F4F4F4F4F4F4F4F429
:105F3000F4F3F3F3F3F3F3F3F3F3F2F2F2F2F2F236
:105F4000F2F2F2F2F1F1F1F1F1F1F1F1F1F0F0F040
:105F5000F0F0F0F0F0F0F0EFEFEFEFEFEFEFEFEF4A
:105F6000EEEEEEEEEEEEEEEEEEEEEDEDEDEDEDED57
:105F7000EDEDEDECECECECECECECECECECEBEBEB61
:105F8000EBEBEBEBEBEBEAEAEAEAEAEAEAEAEAEA6B
:105F9000E9E9E9E9E9E9E9E9E9E8E8E8E8E8E8E878
:105FA000E8E8E7E7E7E7E7E7E7E7E7E7E6E6E6E683
:105FB000E6E6E6E6E6E5E5E5E5E5E5E5E5E5EEFF69
:105FC000E4C9AE93785D42260BF0D5BA9F84694E42
:105FD0003318FDE2C7AC90755A3F2409EED3B89D43
:105FE00082674C3116FADFC4A98E73583D2207EC44
:105FF000D1B69B8065492E13F8DDC2A78C71563B44
:106000002005EACFB3987D62472C11F6DBC0A58A44
:106010006F54391D02E7CCB1967B60452A0FF4D945
:10602000BEA3876C51361B00E5CAAF94795E432846
:106030000DF1D6BBA0856A4F3419FEE3C8AD927747
:106040005B40250AEFD4B99E83684D3217FCE1C648
:10605000AA8F74593E2308EDD2B79C81664B301449
:10606000F9DEC3A88D72573C2106EBD0B59A7E634A
:10607000482D12F7DCC1A68B70553A1F04E8CDB24B
:10608000977C61462B10F5DABFA4896E52371C014C
:10609000E6CBB0957A5F44290EF3D8BCA1866B504D
:1060A000351AFFE4C9AE93785D42270BF0D5BA9F4D
:1060B00084694E3318FDE2C7AC91755A3F24E8FF5E
:1060C000FFFFFFFFFFFFFFFFFFFFFEFEFEFEFEFEE6
:1060D000FEFEFEFEFEFDFDFDFDFDFDFDFDFDFDFDEB
:1060E000FCFCFCFCFCFCFCFCFCFCFCFBFBFBFBFBF5
:1060F000FBFBFBFBFBFBFAFAFAFAFAFAFAFAFAFAFA
:10610000FAF9F9F9F9F9F9F9F9F9F9F9F8F8F8F802
:10611000F8F8F8F8F8F8F8F7F7F7F7F7F7F7F7F708
:10612000F7F7F6F6F6F6F6F6F6F6F6F6F6F5F5F510
:10613000F5F5F5F5F5F5F5F4F4F4F4F4F4F4F4F418
:10614000F4F4F3F3F3F3F3F3F3F3F3F3F3F2F2F220
:10615000F2F2F2F2F2F2F2F2F1F1F1F1F1F1F1F127
:10616000F1F1F1F0F0F0F0F0F0F0F0F0F0F0EFEF2E
:10617000EFEFEFEFEFEFEFEFEFEEEEEEEEEEEEEE36
:10618000EEEEEEEEEDEDEDEDEDEDEDEDEDEDEDEC3C
:10619000ECECECECECECECECECECEBEBEBEBEBEB45
:1061A000EBEBEBEBEBEAEAEAEAEAEAEAEAEAEAE94B
:1061B000E9E9E9E9E9E9E9E9E9E9E8E8E8E888FF9E
:1061C000E8D0B9A18A725B432C14FDE5CEB69F8856
:1061D0007059412A12FBE3CCB49D856E563F2810BE
:1061E000F9E1CAB29B836C543D250EF6DFC8B09925
:1061F000816A523B230CF4DDC5AE967F685039218D
:106200000AF2DBC3AC947D654E361F08F0D9C1AAF3
:10621000927B634C341D05EED6BFA89079614A325B
:106220001B03ECD4BDA58E765F48301901EAD2BBC2
:10623000A38C745D452E16FFE8D0B9A18A725B432A
:106240002C14FDE5CEB69F887059412A12FBE3CC91
:10625000B49D856E563F2810F9E1CAB29B836C54F9
:106260003D250EF6DFC8B099816A523B230CF4DD60
:10627000C5AE967F685039210AF2DBC3AC947D65C8
:106280004E361F08F0D9C1AA927B634C341D05EE2F
:10629000D6BFA89079614A321B03ECD4BDA58E7697
:1062A0005F48301901EAD2BBA38C745D452E16FFFE
:1062B000E8D0B9A18A725B432C14FDE5CEB6E8FFA5
:1062C000FFFFFFFFFFFFFFFFFFFFFEFEFEFEFEFEE4
:1062D000FEFEFEFEFEFDFDFDFDFDFDFDFDFDFDFDE9
:1062E000FCFCFCFCFCFCFCFCFCFCFCFBFBFBFBFBF3
:1062F000FBFBFBFBFBFBFAFAFAFAFAFAFAFAFAFAF8
:10630000FAF9F9F9F9F9F9F9F9F9F9F9F8F8F8F800
:10631000F8F8F8F8F8F8F8F7F7F7F7F7F7F7F7F706
:10632000F7F7F6F6F6F6F6F6F6F6F6F6F6F5F5F50E
:10633000F5F5F5F5F5F5F5F4F4F4F4F4F4F4F4F416
:10634000F4F4F3F3F3F3F3F3F3F3F3F3F3F2F2F21E
:10635000F2F2F2F2F2F2F2F2F1F1F1F1F1F1F1F125
:10636000F1F1F1F0F0F0F0F0F0F0F0F0F0F0EFEF2C
:10637000EFEFEFEFEFEFEFEFEFEEEEEEEEEEEEEE34
:10638000EEEEEEEEEDEDEDEDEDEDEDEDEDEDEDEC3A
:10639000ECECECECECECECECECECEBEBEBEBEBEB43
:1063A000EBEBEBEBEBEAEAEAEAEAEAEAEAEAEAE949
:1063B000E9E9E9E9E9E9E9E9E9E9E8E8E8E888FF9C
:1063C000E8D0B9A18A725B432C14FDE5CEB69F8854
:1063D0007059412A12FBE3CCB49D856E563F2810BC
:1063E000F9E1CAB29B836C543D250EF6DFC8B09923
:1063F000816A523B230CF4DDC5AE967F685039218B
:106400000AF2DBC3AC947D654E361F08F0D9C1AAF1
:10641000927B634C341D05EED6BFA89079614A3259
:106420001B03ECD4BDA58E765F48301901EAD2BBC0
:10643000A38C745D452E16FFE8D0B9A18A725B4328
:106440002C14FDE5CEB69F887059412A12FBE3CC8F
:10645000B49D856E563F2810F9E1CAB29B836C54F7
:106460003D250EF6DFC8B099816A523B230CF4DD5E
:10647000C5AE967F685039210AF2DBC3AC947D65C6
:106480004E361F08F0D9C1AA927B634C341D05EE2D
:10649000D6BFA89079614A321B03ECD4BDA58E7695
:1064A0005F48301901EAD2BBA38C745D452E16FFFC
:1064B000E8D0B9A18A725B432C14FDE5CEB6E5FFA6
:1064C000FFFFFFFFFFFFFFFFFFFEFEFEFEFEFEFEE3
:1064D000FEFEFEFDFDFDFDFDFDFDFDFDFCFCFCFCED
:1064E000FCFCFCFCFCFCFBFBFBFBFBFBFBFBFBFAF7
:1064F000FAFAFAFAFAFAFAFAFAF9F9F9F9F9F9F903
:10650000F9F9F8F8F8F8F8F8F8F8F8F8F7F7F7F70D
:10651000F7F7F7F7F7F6F6F6F6F6F6F6F6F6F6F517
:10652000F5F5F5F5F5F5F5F5F4F4F4F4F4F4F4F423
:10653000F4F4F3F3F3F3F3F3F3F3F3F3F2F2F2F22D
:10654000F2F2F2F2F2F1F1F1F1F1F1F1F1F1F1F037
:10655000F0F0F0F0F0F0F0F0EFEFEFEFEFEFEFEF43
:10656000EFEFEEEEEEEEEEEEEEEEEEEDEDEDEDED4E
:10657000EDEDEDEDEDECECECECECECECECECEBEB58
:10658000EBEBEBEBEBEBEBEBEAEAEAEAEAEAEAEA63
:10659000EAE9E9E9E9E9E9E9E9E9E9E8E8E8E8E86F
:1065A000E8E8E8E8E8E7E7E7E7E7E7E7E7E7E6E678
:1065B000E6E6E6E6E6E6E6E6E5E5E5E5E5E52DFF21
:1065C000E4C9AF94795E43280EF3D8BDA2886D521A
:1065D000371C01E7CCB1967B61462B10F5DAC0A5DC
:1065E0008A6F543A1F04E9CEB3997E63482D13F89D
:1065F000DDC2A78C72573C2106EBD1B69B80654B60
:106600003015FADFC4AA8F74593E2409EED3B89D21
:1066100083684D3217FDE2C7AC91765C41260BF0E2
:10662000D6BBA0856A4F351AFFE4C9AF94795E43A3
:10663000280EF3D8BDA2886D52371C01E7CCB19665
:106640007B61462B10F5DAC0A58A6F543A1F04E926
:10665000CEB3997E63482D13F8DDC2A78C72573CE8
:106660002106EBD1B69B80654B3015FADFC4AA8FAB
:1066700074593E2409EED3B89D83684D3217FDE26C
:10668000C7AC91765C41260BF0D6BBA0856A4F352E
:106690001AFFE4C9AF94795E43280EF3D8BDA288EF
:1066A0006D52371C01E7CCB1967B61462B10F5DAB1
:0E66B000C0A58A6F543A1F04E9CEB3997E63E9
:0266BE00D9CF32
:1066C000E6FFE1CFD9FFFE0EDB50C96EC7A0FED7B3
:1066D000C950E552E7CFD9FF1200ADA2FED7AC6A90
:1066E0001200800EAC6E1200D9CFE6FFE1CFD9FFC9
:1066F000E652F3DF8A90050EE66EE1DFE552E668CA
:10670000DEDFE552DF6E8A80ECDFDF50E552E552D6
:10671000E7CFD9FF1200D9CFE6FFE1CFD9FFE6528C
:10672000DCDF8A90050EE66ECADFE552E668C7DF59
:10673000E552DF6E8A80D5DF010EDF14E552E552A7
:10674000E7CFD9FF12008A90060EE66EB8DFE55259
:106750008A801200C2DFF7DF8A90010EE66EAFDF9B
:10676000E552E66AACDFE5528A8071EF33F004014E
:10677000732B735104E1722B725101E1712B1200E2
:10678000D9CFE6FFE1CFD9FFFE0EDBCF71F4FD0ECE
:10679000DBCF72F4FC0EDBCF73F4E552E7CFD9FF09
:1067A0001200D9CFE6FFE1CFD9FF800E0401715D61
:1067B0001EE2B1DF0009FDE190DFC5DF8A90020E25
:1067C000E66E7DDFE55271C4E6FF79DFE55272C403
:1067D000E6FF75DFE55273C4E6FF71DFE552FE0E9A
:1067E000DBCFE6FF6CDFE5528A807BDFC0DFE5525E
:1067F000E7CFD9FF1200D9CFE6FFE1CFD9FFE652AC
:106800008ADF0009FDE169DF9EDF8A90020EE66EF5
:1068100056DFE552FE0EDBCFE6FF51DFE552FD0EFF
:10682000DBCFE6FF4CDFE552FC0EDBCFE6FF47DFB8
:10683000E552DF6AFB0EDB50DF5C3EE2DF50E76EC5
:10684000F90EDBCFE9FFFA0EDBCFEAFFE750E926CE
:10685000000EEA22EF50E66E32DFE552FC0EDB2A34
:10686000DB5028E18A80FD0EDB2ADB500AE1FE0EB8
:10687000DB2A800EF36EFE0EDBCFF4FFF350F45CE8
:106880001BE249DF0009FDE128DF5DDF8A90020E8F
:10689000E66E15DFE552FE0EDBCFE6FF10DFE552B8
:1068A000FD0EDBCFE6FF0BDFE552FC0EDBCFE6FF94
:1068B00006DFE552DF2ABED78A8013DF58DFE552B4
:1068C000E552E7CFD9FF1200D9CFE6FFE1CFD9FFDC
:1068D000E65221DF0009FDE100DF8A90030EE66E3B
:1068E000EEDEE55271C4E6FFEADEE55272C4E6FF71
:1068F000E6DEE55273C4E6FFE2DEE552E668DFDE7F
:10690000E552DF6E8A80EDDE32DFDF50E552E55280
:10691000E7CFD9FF1200D9CFE6FFE1CFD9FFE6528A
:10692000FADE0009FDE1D9DE8A90030EE66EC7DECD
:10693000E552FE0EDBCFE6FFC2DEE552FD0EDBCFF9
:10694000E6FFBDDEE552FC0EDBCFE6FFB8DEE5522A
:10695000DF6AFB0EDB50DF5C15E2E668B0DEE55275
:10696000E66EDF50E76EF90EDBCFE9FFFA0EDBCF04
:10697000EAFFE750E926000EEA22E552E750EF6E03
:10698000DF2AE7D78A80ADDEE552E552E7CFD9FFAF
:106990001200D9CFE6FFE1CFD9FFFE0EDBCF76F4B0
:1069A000E66AD0DAE552E552E7CFD9FF1200D9CF37
:1069B000E6FFE1CFD9FFFE0EDBCF76F4020EE66EE6
:1069C000C1DAE552E552E7CFD9FF120004016E2B80
:1069D0006E5104E16D2B6D5101E16C2B120004012D
:1069E0006E07FF0E6E5D05E16D07FF0E6D5D01E147
:1069F0006C071200D9CFE6FFE1CFD9FFE66AD95084
:106A0000FE0FE66EFF0EDA20E66E010EE66E08D887
:106A1000E552E552E552E552E552E7CFD9FF1200C3
:106A2000D9CFE6FFE1CFD9FF020EE126DE52010EFB
:106A3000DD6EDF6AFE0EDB50DF5C45E2010EDB043B
:106A40001CE1FB0EDBCFE6FF4AD8E5528AD863DEB5
:106A50000009FDE142DE77DE8A90020EE66E2FDE4F
:106A6000E5526CC4E6FF2BDEE5526DC4E6FF27DE7F
:106A7000E5526EC4E6FF23DEE552DF50E76EFC0E02
:106A8000DBCFE9FFFD0EDBCFEAFFE750E926000E82
:106A9000EA22EF50E66E13DEE552FF0E04016E5D52
:106AA0000DE1DE52010EDD6E8A801BDE0F0E040149
